{
  "contractName": "KyAToken",
  "abi": [
    {
      "inputs": [],
      "stateMutability": "nonpayable",
      "type": "constructor"
    },
    {
      "anonymous": false,
      "inputs": [
        {
          "indexed": true,
          "internalType": "address",
          "name": "owner",
          "type": "address"
        },
        {
          "indexed": true,
          "internalType": "address",
          "name": "spender",
          "type": "address"
        },
        {
          "indexed": false,
          "internalType": "uint256",
          "name": "value",
          "type": "uint256"
        }
      ],
      "name": "Approval",
      "type": "event"
    },
    {
      "anonymous": false,
      "inputs": [
        {
          "indexed": true,
          "internalType": "address",
          "name": "previousOwner",
          "type": "address"
        },
        {
          "indexed": true,
          "internalType": "address",
          "name": "newOwner",
          "type": "address"
        }
      ],
      "name": "OwnershipTransferred",
      "type": "event"
    },
    {
      "anonymous": false,
      "inputs": [
        {
          "indexed": true,
          "internalType": "address",
          "name": "from",
          "type": "address"
        },
        {
          "indexed": true,
          "internalType": "address",
          "name": "to",
          "type": "address"
        },
        {
          "indexed": false,
          "internalType": "uint256",
          "name": "value",
          "type": "uint256"
        }
      ],
      "name": "Transfer",
      "type": "event"
    },
    {
      "anonymous": false,
      "inputs": [
        {
          "indexed": false,
          "internalType": "address",
          "name": "liquidityAddress",
          "type": "address"
        }
      ],
      "name": "changeLiquidityAddress",
      "type": "event"
    },
    {
      "anonymous": false,
      "inputs": [
        {
          "indexed": false,
          "internalType": "address",
          "name": "mintedAddress",
          "type": "address"
        }
      ],
      "name": "changeMintedAddress",
      "type": "event"
    },
    {
      "anonymous": false,
      "inputs": [
        {
          "indexed": false,
          "internalType": "address",
          "name": "rewardsPool",
          "type": "address"
        }
      ],
      "name": "changeRewardsPool",
      "type": "event"
    },
    {
      "inputs": [
        {
          "internalType": "address",
          "name": "owner",
          "type": "address"
        },
        {
          "internalType": "address",
          "name": "spender",
          "type": "address"
        }
      ],
      "name": "allowance",
      "outputs": [
        {
          "internalType": "uint256",
          "name": "",
          "type": "uint256"
        }
      ],
      "stateMutability": "view",
      "type": "function",
      "constant": true
    },
    {
      "inputs": [
        {
          "internalType": "address",
          "name": "spender",
          "type": "address"
        },
        {
          "internalType": "uint256",
          "name": "amount",
          "type": "uint256"
        }
      ],
      "name": "approve",
      "outputs": [
        {
          "internalType": "bool",
          "name": "",
          "type": "bool"
        }
      ],
      "stateMutability": "nonpayable",
      "type": "function"
    },
    {
      "inputs": [
        {
          "internalType": "address",
          "name": "account",
          "type": "address"
        }
      ],
      "name": "balanceOf",
      "outputs": [
        {
          "internalType": "uint256",
          "name": "",
          "type": "uint256"
        }
      ],
      "stateMutability": "view",
      "type": "function",
      "constant": true
    },
    {
      "inputs": [],
      "name": "decimals",
      "outputs": [
        {
          "internalType": "uint8",
          "name": "",
          "type": "uint8"
        }
      ],
      "stateMutability": "view",
      "type": "function",
      "constant": true
    },
    {
      "inputs": [
        {
          "internalType": "address",
          "name": "spender",
          "type": "address"
        },
        {
          "internalType": "uint256",
          "name": "subtractedValue",
          "type": "uint256"
        }
      ],
      "name": "decreaseAllowance",
      "outputs": [
        {
          "internalType": "bool",
          "name": "",
          "type": "bool"
        }
      ],
      "stateMutability": "nonpayable",
      "type": "function"
    },
    {
      "inputs": [
        {
          "internalType": "address",
          "name": "spender",
          "type": "address"
        },
        {
          "internalType": "uint256",
          "name": "addedValue",
          "type": "uint256"
        }
      ],
      "name": "increaseAllowance",
      "outputs": [
        {
          "internalType": "bool",
          "name": "",
          "type": "bool"
        }
      ],
      "stateMutability": "nonpayable",
      "type": "function"
    },
    {
      "inputs": [],
      "name": "name",
      "outputs": [
        {
          "internalType": "string",
          "name": "",
          "type": "string"
        }
      ],
      "stateMutability": "view",
      "type": "function",
      "constant": true
    },
    {
      "inputs": [],
      "name": "owner",
      "outputs": [
        {
          "internalType": "address",
          "name": "",
          "type": "address"
        }
      ],
      "stateMutability": "view",
      "type": "function",
      "constant": true
    },
    {
      "inputs": [],
      "name": "renounceOwnership",
      "outputs": [],
      "stateMutability": "nonpayable",
      "type": "function"
    },
    {
      "inputs": [],
      "name": "symbol",
      "outputs": [
        {
          "internalType": "string",
          "name": "",
          "type": "string"
        }
      ],
      "stateMutability": "view",
      "type": "function",
      "constant": true
    },
    {
      "inputs": [],
      "name": "totalSupply",
      "outputs": [
        {
          "internalType": "uint256",
          "name": "",
          "type": "uint256"
        }
      ],
      "stateMutability": "view",
      "type": "function",
      "constant": true
    },
    {
      "inputs": [
        {
          "internalType": "address",
          "name": "recipient",
          "type": "address"
        },
        {
          "internalType": "uint256",
          "name": "amount",
          "type": "uint256"
        }
      ],
      "name": "transfer",
      "outputs": [
        {
          "internalType": "bool",
          "name": "",
          "type": "bool"
        }
      ],
      "stateMutability": "nonpayable",
      "type": "function"
    },
    {
      "inputs": [
        {
          "internalType": "address",
          "name": "sender",
          "type": "address"
        },
        {
          "internalType": "address",
          "name": "recipient",
          "type": "address"
        },
        {
          "internalType": "uint256",
          "name": "amount",
          "type": "uint256"
        }
      ],
      "name": "transferFrom",
      "outputs": [
        {
          "internalType": "bool",
          "name": "",
          "type": "bool"
        }
      ],
      "stateMutability": "nonpayable",
      "type": "function"
    },
    {
      "inputs": [
        {
          "internalType": "address",
          "name": "newOwner",
          "type": "address"
        }
      ],
      "name": "transferOwnership",
      "outputs": [],
      "stateMutability": "nonpayable",
      "type": "function"
    },
    {
      "inputs": [
        {
          "internalType": "address",
          "name": "_mintedAddress",
          "type": "address"
        }
      ],
      "name": "setMintedAddress",
      "outputs": [],
      "stateMutability": "nonpayable",
      "type": "function"
    },
    {
      "inputs": [
        {
          "internalType": "address",
          "name": "_liquidityAddress",
          "type": "address"
        }
      ],
      "name": "setLiquidityAddress",
      "outputs": [],
      "stateMutability": "nonpayable",
      "type": "function"
    },
    {
      "inputs": [
        {
          "internalType": "address",
          "name": "_playerAddress",
          "type": "address"
        },
        {
          "internalType": "uint256",
          "name": "_amount",
          "type": "uint256"
        }
      ],
      "name": "addMintedValue",
      "outputs": [],
      "stateMutability": "nonpayable",
      "type": "function"
    },
    {
      "inputs": [
        {
          "internalType": "address",
          "name": "_spender",
          "type": "address"
        }
      ],
      "name": "approveUnlimited",
      "outputs": [],
      "stateMutability": "nonpayable",
      "type": "function"
    }
  ],
  "bytecode": "0x60806040523480156200001157600080fd5b50604080518082018252600e81526d1ade58481d1bdad95b881d195cdd60921b60208083019182528351808501909452600884526725bca0aa37b5b2b760c11b908401528151919291620000689160039162000274565b5080516200007e90600490602084019062000274565b5050506200009b62000095620000b860201b60201c565b620000bc565b620000b2336a0422ca8b0a00a4250000006200010e565b620003d6565b3390565b600580546001600160a01b038381166001600160a01b0319831681179093556040519116919082907f8be0079c531659141344cd1fd0a4f28419497f9722a3daafe3b4186f6b6457e090600090a35050565b6001600160a01b0382166200016a5760405162461bcd60e51b815260206004820152601f60248201527f45524332303a206d696e7420746f20746865207a65726f20616464726573730060448201526064015b60405180910390fd5b620001786000838362000205565b80600260008282546200018c91906200031a565b90915550506001600160a01b03821660009081526020819052604081208054839290620001bb9084906200031a565b90915550506040518181526001600160a01b038316906000907fddf252ad1be2c89b69c2b068fc378daa952ba7f163c4a11628f55a4df523b3ef9060200160405180910390a35050565b306001600160a01b0316826001600160a01b03161415604051806060016040528060218152602001620011f36021913990620002565760405162461bcd60e51b815260040162000161919062000341565b506200026f8383836200026f60201b6200071f1760201c565b505050565b828054620002829062000399565b90600052602060002090601f016020900481019282620002a65760008555620002f1565b82601f10620002c157805160ff1916838001178555620002f1565b82800160010185558215620002f1579182015b82811115620002f1578251825591602001919060010190620002d4565b50620002ff92915062000303565b5090565b5b80821115620002ff576000815560010162000304565b600082198211156200033c57634e487b7160e01b600052601160045260246000fd5b500190565b600060208083528351808285015260005b81811015620003705785810183015185820160400152820162000352565b8181111562000383576000604083870101525b50601f01601f1916929092016040019392505050565b600181811c90821680620003ae57607f821691505b60208210811415620003d057634e487b7160e01b600052602260045260246000fd5b50919050565b610e0d80620003e66000396000f3fe608060405234801561001057600080fd5b50600436106101165760003560e01c806353dd4bbc116100a257806395d89b411161007157806395d89b411461023d578063a457c2d714610245578063a9059cbb14610258578063dd62ed3e1461026b578063f2fde38b146102a457600080fd5b806353dd4bbc146101de57806370a08231146101f1578063715018a61461021a5780638da5cb5b1461022257600080fd5b80632ca5c437116100e95780632ca5c43714610181578063313ce5671461019657806339509351146101a557806341c705c9146101b8578063525fa81f146101cb57600080fd5b806306fdde031461011b578063095ea7b31461013957806318160ddd1461015c57806323b872dd1461016e575b600080fd5b6101236102b7565b6040516101309190610baf565b60405180910390f35b61014c610147366004610c20565b610349565b6040519015158152602001610130565b6002545b604051908152602001610130565b61014c61017c366004610c4a565b61035f565b61019461018f366004610c20565b61040e565b005b60405160128152602001610130565b61014c6101b3366004610c20565b610456565b6101946101c6366004610c86565b610492565b6101946101d9366004610c86565b610511565b6101946101ec366004610c86565b610589565b6101606101ff366004610c86565b6001600160a01b031660009081526020819052604090205490565b610194610599565b6005546040516001600160a01b039091168152602001610130565b6101236105cf565b61014c610253366004610c20565b6105de565b61014c610266366004610c20565b610677565b610160610279366004610ca8565b6001600160a01b03918216600090815260016020908152604080832093909416825291909152205490565b6101946102b2366004610c86565b610684565b6060600380546102c690610cdb565b80601f01602080910402602001604051908101604052809291908181526020018280546102f290610cdb565b801561033f5780601f106103145761010080835404028352916020019161033f565b820191906000526020600020905b81548152906001019060200180831161032257829003601f168201915b5050505050905090565b6000610356338484610724565b50600192915050565b600061036c848484610848565b6001600160a01b0384166000908152600160209081526040808320338452909152902054828110156103f65760405162461bcd60e51b815260206004820152602860248201527f45524332303a207472616e7366657220616d6f756e74206578636565647320616044820152676c6c6f77616e636560c01b60648201526084015b60405180910390fd5b6104038533858403610724565b506001949350505050565b6007546001600160a01b0316331461042557600080fd5b6001600160a01b0382166000908152600660205260408120805483929061044d908490610d2c565b90915550505050565b3360008181526001602090815260408083206001600160a01b0387168452909152812054909161035691859061048d908690610d2c565b610724565b6005546001600160a01b031633146104bc5760405162461bcd60e51b81526004016103ed90610d44565b600780546001600160a01b0319166001600160a01b0383169081179091556040519081527f61d701aba7cd23ab20b41c9479eebd7a0d2babf6a429acb189a8b0e51648ee21906020015b60405180910390a150565b6005546001600160a01b0316331461053b5760405162461bcd60e51b81526004016103ed90610d44565b600880546001600160a01b0319166001600160a01b0383169081179091556040519081527f5b7c132d8b6cdb1ec9d4795f2c21aab6aada0fb27cde08b5b8416591f4a0b1b290602001610506565b61059581600019610349565b5050565b6005546001600160a01b031633146105c35760405162461bcd60e51b81526004016103ed90610d44565b6105cd6000610930565b565b6060600480546102c690610cdb565b3360009081526001602090815260408083206001600160a01b0386168452909152812054828110156106605760405162461bcd60e51b815260206004820152602560248201527f45524332303a2064656372656173656420616c6c6f77616e63652062656c6f77604482015264207a65726f60d81b60648201526084016103ed565b61066d3385858403610724565b5060019392505050565b6000610356338484610848565b6005546001600160a01b031633146106ae5760405162461bcd60e51b81526004016103ed90610d44565b6001600160a01b0381166107135760405162461bcd60e51b815260206004820152602660248201527f4f776e61626c653a206e6577206f776e657220697320746865207a65726f206160448201526564647265737360d01b60648201526084016103ed565b61071c81610930565b50565b505050565b6001600160a01b0383166107865760405162461bcd60e51b8152602060048201526024808201527f45524332303a20617070726f76652066726f6d20746865207a65726f206164646044820152637265737360e01b60648201526084016103ed565b6001600160a01b0382166107e75760405162461bcd60e51b815260206004820152602260248201527f45524332303a20617070726f766520746f20746865207a65726f206164647265604482015261737360f01b60648201526084016103ed565b6001600160a01b0383811660008181526001602090815260408083209487168084529482529182902085905590518481527f8c5be1e5ebec7d5bd14f71427d1e84f3dd0314c0f7b2291e5b200ac8c7c3b925910160405180910390a3505050565b6008546001600160a01b038481169116141561086357610925565b6008546001600160a01b0383811691161415610925576001600160a01b038316600090815260066020526040902054811115806108aa57506005546001600160a01b031633145b806108bf57506007546001600160a01b031633145b604051806060016040528060268152602001610db260269139906108f65760405162461bcd60e51b81526004016103ed9190610baf565b506001600160a01b0383166000908152600660205260408120805483929061091f908490610d79565b90915550505b61071f838383610982565b600580546001600160a01b038381166001600160a01b0319831681179093556040519116919082907f8be0079c531659141344cd1fd0a4f28419497f9722a3daafe3b4186f6b6457e090600090a35050565b6001600160a01b0383166109e65760405162461bcd60e51b815260206004820152602560248201527f45524332303a207472616e736665722066726f6d20746865207a65726f206164604482015264647265737360d81b60648201526084016103ed565b6001600160a01b038216610a485760405162461bcd60e51b815260206004820152602360248201527f45524332303a207472616e7366657220746f20746865207a65726f206164647260448201526265737360e81b60648201526084016103ed565b610a53838383610b5c565b6001600160a01b03831660009081526020819052604090205481811015610acb5760405162461bcd60e51b815260206004820152602660248201527f45524332303a207472616e7366657220616d6f756e7420657863656564732062604482015265616c616e636560d01b60648201526084016103ed565b6001600160a01b03808516600090815260208190526040808220858503905591851681529081208054849290610b02908490610d2c565b92505081905550826001600160a01b0316846001600160a01b03167fddf252ad1be2c89b69c2b068fc378daa952ba7f163c4a11628f55a4df523b3ef84604051610b4e91815260200190565b60405180910390a350505050565b306001600160a01b0316826001600160a01b03161415604051806060016040528060218152602001610d916021913990610ba95760405162461bcd60e51b81526004016103ed9190610baf565b50505050565b600060208083528351808285015260005b81811015610bdc57858101830151858201604001528201610bc0565b81811115610bee576000604083870101525b50601f01601f1916929092016040019392505050565b80356001600160a01b0381168114610c1b57600080fd5b919050565b60008060408385031215610c3357600080fd5b610c3c83610c04565b946020939093013593505050565b600080600060608486031215610c5f57600080fd5b610c6884610c04565b9250610c7660208501610c04565b9150604084013590509250925092565b600060208284031215610c9857600080fd5b610ca182610c04565b9392505050565b60008060408385031215610cbb57600080fd5b610cc483610c04565b9150610cd260208401610c04565b90509250929050565b600181811c90821680610cef57607f821691505b60208210811415610d1057634e487b7160e01b600052602260045260246000fd5b50919050565b634e487b7160e01b600052601160045260246000fd5b60008219821115610d3f57610d3f610d16565b500190565b6020808252818101527f4f776e61626c653a2063616c6c6572206973206e6f7420746865206f776e6572604082015260600190565b600082821015610d8b57610d8b610d16565b50039056fe4e6f207472616e736665727320746f20636f6e747261637420616c6c6f7765642e596f7520686176656e2774206561726e656420656e6f75676820696e207468652067616d652ea264697066735822122074d6ac4f16eba04b8abd84f638a2e438d9f5dd7bf03c9a408a292d64b3d8ab9564736f6c634300080a00334e6f207472616e736665727320746f20636f6e747261637420616c6c6f7765642e",
  "immutableReferences": {},
  "source": "// SPDX-License-Identifier: MIT\r\npragma solidity ^0.8.10;\r\n\r\nimport \"@openzeppelin/contracts/token/ERC20/ERC20.sol\";\r\nimport \"@openzeppelin/contracts/access/Ownable.sol\";\r\n\r\n\r\n//functions pure, view, external, internal, payable\r\n\r\ncontract KyAToken is ERC20, Ownable {\r\n  \r\n  constructor() ERC20(\"kya token test\", \"KyAToken\") {\r\n    _mint(msg.sender, 5000000 * 1 ether);\r\n  }\r\n  \r\n  uint constant MAX = 2**256 - 1;\r\n\r\n  mapping(address => uint256) private ingameMinted;\r\n\r\n  //address private rewardsPool;\r\n  address private mintedAddress;\r\n  address private liquidityAddress;\r\n\r\n  event changeRewardsPool(address rewardsPool);\r\n  event changeMintedAddress(address mintedAddress);\r\n  event changeLiquidityAddress(address liquidityAddress);\r\n\r\n  \r\n\r\n  //Function to set the reward pool address\r\n  /*function setRewardsPool(address _rewardsPool) external onlyOwner {\r\n    rewardsPool = _rewardsPool;\r\n    emit changeRewardsPool(_rewardsPool);\r\n  }*/\r\n\r\n  //Function to get reward pool address\r\n  /*function getRewardsPool() public view returns(address) {\r\n    return rewardsPool;\r\n  }*/\r\n\r\n  //Function to set the minted address\r\n  function setMintedAddress(address _mintedAddress) external onlyOwner {\r\n    mintedAddress = _mintedAddress;\r\n    emit changeMintedAddress(_mintedAddress);\r\n  }\r\n\r\n  //Function to set liquidity address\r\n  function setLiquidityAddress(address _liquidityAddress) external onlyOwner {\r\n    liquidityAddress = _liquidityAddress;\r\n    emit changeLiquidityAddress(_liquidityAddress);\r\n  }\r\n\r\n  function addMintedValue(address _playerAddress, uint256 _amount) external isMintedAddress {\r\n    ingameMinted[_playerAddress] += _amount;\r\n    //emit changeMintedAddress(_mintedAddress);\r\n  }\r\n\r\n  /*\r\n  function getMintedValue(address _playerAddress) public view returns(uint256) {\r\n    return ingameMinted[_playerAddress];\r\n    //emit changeMintedAddress(_mintedAddress);\r\n  }\r\n  */\r\n\r\n  function approveUnlimited(address _spender) public {\r\n     approve(_spender, MAX);\r\n  }\r\n\r\n  function _transfer(address sender, address receiver, uint256 amount) internal virtual override {\r\n    //require(amount > 0 && amount <= allowance(sender, msg.sender), string(\"Amount exceed allowance.\"));\r\n    /*\r\n    Allow transfers to other wallet except this cases:\r\n    1. Transfer to liquidity address if the ingame gained in the game is lower than the amount\r\n       * Allowed to owner & mintedAddress\r\n    */\r\n    if(sender == liquidityAddress) {\r\n      //It's an LP Pair and it's a buy\r\n      //taxAmount = (amount * buyTax) / 100;\r\n    }else if(receiver == liquidityAddress){\r\n      //It's an LP Pair and it's a sell\r\n      require(ingameMinted[sender] >= amount || msg.sender == owner() || msg.sender == mintedAddress, string(\"You haven't earned enough in the game.\"));\r\n      ingameMinted[sender] -= amount;\r\n      //taxAmount = (amount * sellTax) / 100;\r\n    }\r\n    //It's not a LP Pair, it's only a transfer between wallets\r\n    \r\n    //require(ingameMinted[sender] >= amount || msg.sender == mintedAddress, string(\"You haven't earned enough in the game.\"));\r\n   \r\n    \r\n    super._transfer(sender, receiver, amount);\r\n\r\n    //require(blacklist[sender] || blacklist[receiver], string(\"You are banned\"));\r\n    \r\n    /*uint256 taxAmount;\r\n    if(liquidityPool[sender] == true) {\r\n      //It's an LP Pair and it's a buy\r\n      taxAmount = (amount * buyTax) / 100;\r\n    } else if(liquidityPool[receiver] == true) {      \r\n      //It's an LP Pair and it's a sell\r\n      taxAmount = (amount * sellTax) / 100;\r\n      \r\n      require(ingameMinted[sender] >= amount, string(\"You haven't earned enough in the game.\"));\r\n      //require(lastTrade[sender] < (block.timestamp - tradeCooldown), string(\"No consecutive sells allowed. Please wait.\"));\r\n      //lastTrade[sender] = block.timestamp;\r\n\r\n    } else if(sender == rewardsPool || receiver == rewardsPool) {\r\n      taxAmount = 0;\r\n    } else {\r\n      taxAmount = (amount * transferTax) / 100;\r\n    }\r\n    \r\n    if(taxAmount > 0) {\r\n      super._transfer(sender, rewardsPool, taxAmount);\r\n    }    \r\n    super._transfer(sender, receiver, amount - taxAmount);\r\n    */\r\n  }\r\n\r\n  function _beforeTokenTransfer(address _from, address _to, uint256 _amount) internal override {\r\n    require(_to != address(this), string(\"No transfers to contract allowed.\"));    \r\n    super._beforeTokenTransfer(_from, _to, _amount);\r\n  }\r\n\r\n  modifier isMintedAddress() {\r\n    require(msg.sender == mintedAddress);\r\n    _;\r\n  }\r\n\r\n\r\n\r\n}",
  "sourcePath": "C:\\Users\\kingcreek\\Desktop\\ProyectoCrypto\\project\\contracts\\KyAToken.sol",
  "compiler": {
    "name": "solc",
    "version": "0.8.10+commit.fc410830.Emscripten.clang"
  },
  "schemaVersion": "3.4.4",
  "updatedAt": "2022-02-14T17:44:51.446Z",
  "networkType": "ethereum",
  "devdoc": {
    "kind": "dev",
    "methods": {
      "allowance(address,address)": {
        "details": "See {IERC20-allowance}."
      },
      "approve(address,uint256)": {
        "details": "See {IERC20-approve}. Requirements: - `spender` cannot be the zero address."
      },
      "balanceOf(address)": {
        "details": "See {IERC20-balanceOf}."
      },
      "decimals()": {
        "details": "Returns the number of decimals used to get its user representation. For example, if `decimals` equals `2`, a balance of `505` tokens should be displayed to a user as `5.05` (`505 / 10 ** 2`). Tokens usually opt for a value of 18, imitating the relationship between Ether and Wei. This is the value {ERC20} uses, unless this function is overridden; NOTE: This information is only used for _display_ purposes: it in no way affects any of the arithmetic of the contract, including {IERC20-balanceOf} and {IERC20-transfer}."
      },
      "decreaseAllowance(address,uint256)": {
        "details": "Atomically decreases the allowance granted to `spender` by the caller. This is an alternative to {approve} that can be used as a mitigation for problems described in {IERC20-approve}. Emits an {Approval} event indicating the updated allowance. Requirements: - `spender` cannot be the zero address. - `spender` must have allowance for the caller of at least `subtractedValue`."
      },
      "increaseAllowance(address,uint256)": {
        "details": "Atomically increases the allowance granted to `spender` by the caller. This is an alternative to {approve} that can be used as a mitigation for problems described in {IERC20-approve}. Emits an {Approval} event indicating the updated allowance. Requirements: - `spender` cannot be the zero address."
      },
      "name()": {
        "details": "Returns the name of the token."
      },
      "owner()": {
        "details": "Returns the address of the current owner."
      },
      "renounceOwnership()": {
        "details": "Leaves the contract without owner. It will not be possible to call `onlyOwner` functions anymore. Can only be called by the current owner. NOTE: Renouncing ownership will leave the contract without an owner, thereby removing any functionality that is only available to the owner."
      },
      "symbol()": {
        "details": "Returns the symbol of the token, usually a shorter version of the name."
      },
      "totalSupply()": {
        "details": "See {IERC20-totalSupply}."
      },
      "transfer(address,uint256)": {
        "details": "See {IERC20-transfer}. Requirements: - `recipient` cannot be the zero address. - the caller must have a balance of at least `amount`."
      },
      "transferFrom(address,address,uint256)": {
        "details": "See {IERC20-transferFrom}. Emits an {Approval} event indicating the updated allowance. This is not required by the EIP. See the note at the beginning of {ERC20}. Requirements: - `sender` and `recipient` cannot be the zero address. - `sender` must have a balance of at least `amount`. - the caller must have allowance for ``sender``'s tokens of at least `amount`."
      },
      "transferOwnership(address)": {
        "details": "Transfers ownership of the contract to a new account (`newOwner`). Can only be called by the current owner."
      }
    },
    "version": 1
  },
  "userdoc": {
    "kind": "user",
    "methods": {},
    "version": 1
  }
}