{
  "contractName": "LipToken",
  "abi": [
    {
      "inputs": [
        {
          "internalType": "string",
          "name": "_name",
          "type": "string"
        },
        {
          "internalType": "string",
          "name": "_symbol",
          "type": "string"
        }
      ],
      "stateMutability": "nonpayable",
      "type": "constructor"
    },
    {
      "anonymous": false,
      "inputs": [
        {
          "indexed": true,
          "internalType": "address",
          "name": "owner",
          "type": "address"
        },
        {
          "indexed": true,
          "internalType": "address",
          "name": "approved",
          "type": "address"
        },
        {
          "indexed": true,
          "internalType": "uint256",
          "name": "tokenId",
          "type": "uint256"
        }
      ],
      "name": "Approval",
      "type": "event"
    },
    {
      "anonymous": false,
      "inputs": [
        {
          "indexed": true,
          "internalType": "address",
          "name": "owner",
          "type": "address"
        },
        {
          "indexed": true,
          "internalType": "address",
          "name": "operator",
          "type": "address"
        },
        {
          "indexed": false,
          "internalType": "bool",
          "name": "approved",
          "type": "bool"
        }
      ],
      "name": "ApprovalForAll",
      "type": "event"
    },
    {
      "anonymous": false,
      "inputs": [
        {
          "indexed": true,
          "internalType": "address",
          "name": "owner",
          "type": "address"
        },
        {
          "indexed": false,
          "internalType": "uint256",
          "name": "id",
          "type": "uint256"
        },
        {
          "indexed": false,
          "internalType": "uint256",
          "name": "dna",
          "type": "uint256"
        }
      ],
      "name": "NewLip",
      "type": "event"
    },
    {
      "anonymous": false,
      "inputs": [
        {
          "indexed": true,
          "internalType": "address",
          "name": "previousOwner",
          "type": "address"
        },
        {
          "indexed": true,
          "internalType": "address",
          "name": "newOwner",
          "type": "address"
        }
      ],
      "name": "OwnershipTransferred",
      "type": "event"
    },
    {
      "anonymous": false,
      "inputs": [
        {
          "indexed": true,
          "internalType": "address",
          "name": "from",
          "type": "address"
        },
        {
          "indexed": true,
          "internalType": "address",
          "name": "to",
          "type": "address"
        },
        {
          "indexed": true,
          "internalType": "uint256",
          "name": "tokenId",
          "type": "uint256"
        }
      ],
      "name": "Transfer",
      "type": "event"
    },
    {
      "inputs": [
        {
          "internalType": "address",
          "name": "to",
          "type": "address"
        },
        {
          "internalType": "uint256",
          "name": "tokenId",
          "type": "uint256"
        }
      ],
      "name": "approve",
      "outputs": [],
      "stateMutability": "nonpayable",
      "type": "function"
    },
    {
      "inputs": [
        {
          "internalType": "address",
          "name": "owner",
          "type": "address"
        }
      ],
      "name": "balanceOf",
      "outputs": [
        {
          "internalType": "uint256",
          "name": "",
          "type": "uint256"
        }
      ],
      "stateMutability": "view",
      "type": "function"
    },
    {
      "inputs": [
        {
          "internalType": "uint256",
          "name": "tokenId",
          "type": "uint256"
        }
      ],
      "name": "getApproved",
      "outputs": [
        {
          "internalType": "address",
          "name": "",
          "type": "address"
        }
      ],
      "stateMutability": "view",
      "type": "function"
    },
    {
      "inputs": [
        {
          "internalType": "address",
          "name": "owner",
          "type": "address"
        },
        {
          "internalType": "address",
          "name": "operator",
          "type": "address"
        }
      ],
      "name": "isApprovedForAll",
      "outputs": [
        {
          "internalType": "bool",
          "name": "",
          "type": "bool"
        }
      ],
      "stateMutability": "view",
      "type": "function"
    },
    {
      "inputs": [
        {
          "internalType": "uint256",
          "name": "",
          "type": "uint256"
        }
      ],
      "name": "lips",
      "outputs": [
        {
          "internalType": "string",
          "name": "name",
          "type": "string"
        },
        {
          "internalType": "uint256",
          "name": "id",
          "type": "uint256"
        },
        {
          "internalType": "uint256",
          "name": "dna",
          "type": "uint256"
        },
        {
          "internalType": "uint8",
          "name": "level",
          "type": "uint8"
        },
        {
          "internalType": "uint8",
          "name": "rarity",
          "type": "uint8"
        }
      ],
      "stateMutability": "view",
      "type": "function"
    },
    {
      "inputs": [],
      "name": "name",
      "outputs": [
        {
          "internalType": "string",
          "name": "",
          "type": "string"
        }
      ],
      "stateMutability": "view",
      "type": "function"
    },
    {
      "inputs": [],
      "name": "owner",
      "outputs": [
        {
          "internalType": "address",
          "name": "",
          "type": "address"
        }
      ],
      "stateMutability": "view",
      "type": "function"
    },
    {
      "inputs": [
        {
          "internalType": "uint256",
          "name": "tokenId",
          "type": "uint256"
        }
      ],
      "name": "ownerOf",
      "outputs": [
        {
          "internalType": "address",
          "name": "",
          "type": "address"
        }
      ],
      "stateMutability": "view",
      "type": "function"
    },
    {
      "inputs": [],
      "name": "renounceOwnership",
      "outputs": [],
      "stateMutability": "nonpayable",
      "type": "function"
    },
    {
      "inputs": [
        {
          "internalType": "address",
          "name": "from",
          "type": "address"
        },
        {
          "internalType": "address",
          "name": "to",
          "type": "address"
        },
        {
          "internalType": "uint256",
          "name": "tokenId",
          "type": "uint256"
        }
      ],
      "name": "safeTransferFrom",
      "outputs": [],
      "stateMutability": "nonpayable",
      "type": "function"
    },
    {
      "inputs": [
        {
          "internalType": "address",
          "name": "from",
          "type": "address"
        },
        {
          "internalType": "address",
          "name": "to",
          "type": "address"
        },
        {
          "internalType": "uint256",
          "name": "tokenId",
          "type": "uint256"
        },
        {
          "internalType": "bytes",
          "name": "_data",
          "type": "bytes"
        }
      ],
      "name": "safeTransferFrom",
      "outputs": [],
      "stateMutability": "nonpayable",
      "type": "function"
    },
    {
      "inputs": [
        {
          "internalType": "address",
          "name": "operator",
          "type": "address"
        },
        {
          "internalType": "bool",
          "name": "approved",
          "type": "bool"
        }
      ],
      "name": "setApprovalForAll",
      "outputs": [],
      "stateMutability": "nonpayable",
      "type": "function"
    },
    {
      "inputs": [
        {
          "internalType": "bytes4",
          "name": "interfaceId",
          "type": "bytes4"
        }
      ],
      "name": "supportsInterface",
      "outputs": [
        {
          "internalType": "bool",
          "name": "",
          "type": "bool"
        }
      ],
      "stateMutability": "view",
      "type": "function"
    },
    {
      "inputs": [],
      "name": "symbol",
      "outputs": [
        {
          "internalType": "string",
          "name": "",
          "type": "string"
        }
      ],
      "stateMutability": "view",
      "type": "function"
    },
    {
      "inputs": [
        {
          "internalType": "uint256",
          "name": "tokenId",
          "type": "uint256"
        }
      ],
      "name": "tokenURI",
      "outputs": [
        {
          "internalType": "string",
          "name": "",
          "type": "string"
        }
      ],
      "stateMutability": "view",
      "type": "function"
    },
    {
      "inputs": [
        {
          "internalType": "address",
          "name": "from",
          "type": "address"
        },
        {
          "internalType": "address",
          "name": "to",
          "type": "address"
        },
        {
          "internalType": "uint256",
          "name": "tokenId",
          "type": "uint256"
        }
      ],
      "name": "transferFrom",
      "outputs": [],
      "stateMutability": "nonpayable",
      "type": "function"
    },
    {
      "inputs": [
        {
          "internalType": "address",
          "name": "newOwner",
          "type": "address"
        }
      ],
      "name": "transferOwnership",
      "outputs": [],
      "stateMutability": "nonpayable",
      "type": "function"
    },
    {
      "inputs": [
        {
          "internalType": "uint256",
          "name": "_fee",
          "type": "uint256"
        }
      ],
      "name": "updateFee",
      "outputs": [],
      "stateMutability": "nonpayable",
      "type": "function"
    },
    {
      "inputs": [],
      "name": "withdraw",
      "outputs": [],
      "stateMutability": "payable",
      "type": "function"
    },
    {
      "inputs": [
        {
          "internalType": "string",
          "name": "_name",
          "type": "string"
        }
      ],
      "name": "createRandomLip",
      "outputs": [],
      "stateMutability": "payable",
      "type": "function"
    },
    {
      "inputs": [],
      "name": "getLips",
      "outputs": [
        {
          "components": [
            {
              "internalType": "string",
              "name": "name",
              "type": "string"
            },
            {
              "internalType": "uint256",
              "name": "id",
              "type": "uint256"
            },
            {
              "internalType": "uint256",
              "name": "dna",
              "type": "uint256"
            },
            {
              "internalType": "uint8",
              "name": "level",
              "type": "uint8"
            },
            {
              "internalType": "uint8",
              "name": "rarity",
              "type": "uint8"
            }
          ],
          "internalType": "struct LipToken.Lip[]",
          "name": "",
          "type": "tuple[]"
        }
      ],
      "stateMutability": "view",
      "type": "function"
    },
    {
      "inputs": [],
      "name": "moneySmartContract",
      "outputs": [
        {
          "internalType": "uint256",
          "name": "",
          "type": "uint256"
        }
      ],
      "stateMutability": "view",
      "type": "function"
    },
    {
      "inputs": [],
      "name": "addressSmartContract",
      "outputs": [
        {
          "internalType": "address",
          "name": "",
          "type": "address"
        }
      ],
      "stateMutability": "view",
      "type": "function"
    },
    {
      "inputs": [
        {
          "internalType": "address",
          "name": "_owner",
          "type": "address"
        }
      ],
      "name": "getOwnerLips",
      "outputs": [
        {
          "components": [
            {
              "internalType": "string",
              "name": "name",
              "type": "string"
            },
            {
              "internalType": "uint256",
              "name": "id",
              "type": "uint256"
            },
            {
              "internalType": "uint256",
              "name": "dna",
              "type": "uint256"
            },
            {
              "internalType": "uint8",
              "name": "level",
              "type": "uint8"
            },
            {
              "internalType": "uint8",
              "name": "rarity",
              "type": "uint8"
            }
          ],
          "internalType": "struct LipToken.Lip[]",
          "name": "",
          "type": "tuple[]"
        }
      ],
      "stateMutability": "view",
      "type": "function"
    },
    {
      "inputs": [
        {
          "internalType": "uint256",
          "name": "_lipId",
          "type": "uint256"
        }
      ],
      "name": "levelUp",
      "outputs": [],
      "stateMutability": "nonpayable",
      "type": "function"
    }
  ],
  "bytecode": "0x6080604052670de0b6b3a76400006008553480156200001d57600080fd5b50604051620023843803806200238483398101604081905262000040916200025d565b81518290829062000059906000906020850190620000ea565b5080516200006f906001906020840190620000ea565b5050506200008c620000866200009460201b60201c565b62000098565b505062000304565b3390565b600680546001600160a01b038381166001600160a01b0319831681179093556040519116919082907f8be0079c531659141344cd1fd0a4f28419497f9722a3daafe3b4186f6b6457e090600090a35050565b828054620000f890620002c7565b90600052602060002090601f0160209004810192826200011c576000855562000167565b82601f106200013757805160ff191683800117855562000167565b8280016001018555821562000167579182015b82811115620001675782518255916020019190600101906200014a565b506200017592915062000179565b5090565b5b808211156200017557600081556001016200017a565b634e487b7160e01b600052604160045260246000fd5b600082601f830112620001b857600080fd5b81516001600160401b0380821115620001d557620001d562000190565b604051601f8301601f19908116603f0116810190828211818310171562000200576200020062000190565b816040528381526020925086838588010111156200021d57600080fd5b600091505b8382101562000241578582018301518183018401529082019062000222565b83821115620002535760008385830101525b9695505050505050565b600080604083850312156200027157600080fd5b82516001600160401b03808211156200028957600080fd5b6200029786838701620001a6565b93506020850151915080821115620002ae57600080fd5b50620002bd85828601620001a6565b9150509250929050565b600181811c90821680620002dc57607f821691505b60208210811415620002fe57634e487b7160e01b600052602260045260246000fd5b50919050565b61207080620003146000396000f3fe6080604052600436106101665760003560e01c8063715018a6116100d157806399470ee61161008a578063c2f5168a11610064578063c2f5168a14610413578063c87b56dd14610426578063e985e9c514610446578063f2fde38b1461048f57600080fd5b806399470ee6146103c0578063a22cb465146103d3578063b88d4fde146103f357600080fd5b8063715018a61461031657806383b5daf71461032b5780638c0b9c541461034d5780638da5cb5b1461036d5780639012c4a81461038b57806395d89b41146103ab57600080fd5b80633ccfd60b116101235780633ccfd60b1461025c57806342842e0e146102645780635ec163db146102845780636352211e146102b5578063698d640c146102d557806370a08231146102e857600080fd5b806301ffc9a71461016b57806306fdde03146101a0578063081812fc146101c2578063095ea7b3146101fa5780630ce90ec21461021c57806323b872dd1461023c575b600080fd5b34801561017757600080fd5b5061018b6101863660046119f4565b6104af565b60405190151581526020015b60405180910390f35b3480156101ac57600080fd5b506101b5610501565b6040516101979190611a69565b3480156101ce57600080fd5b506101e26101dd366004611a7c565b610593565b6040516001600160a01b039091168152602001610197565b34801561020657600080fd5b5061021a610215366004611ab1565b61062d565b005b34801561022857600080fd5b5061021a610237366004611a7c565b610743565b34801561024857600080fd5b5061021a610257366004611adb565b6107ba565b61021a6107eb565b34801561027057600080fd5b5061021a61027f366004611adb565b610865565b34801561029057600080fd5b506102a461029f366004611a7c565b610880565b604051610197959493929190611b17565b3480156102c157600080fd5b506101e26102d0366004611a7c565b610956565b61021a6102e3366004611bdd565b6109cd565b3480156102f457600080fd5b50610308610303366004611c26565b6109e8565b604051908152602001610197565b34801561032257600080fd5b5061021a610a6f565b34801561033757600080fd5b50610340610aa5565b6040516101979190611c41565b34801561035957600080fd5b50610340610368366004611c26565b610bcb565b34801561037957600080fd5b506006546001600160a01b03166101e2565b34801561039757600080fd5b5061021a6103a6366004611a7c565b610dc3565b3480156103b757600080fd5b506101b5610df2565b3480156103cc57600080fd5b5047610308565b3480156103df57600080fd5b5061021a6103ee366004611cdf565b610e01565b3480156103ff57600080fd5b5061021a61040e366004611d1b565b610e0c565b34801561041f57600080fd5b50306101e2565b34801561043257600080fd5b506101b5610441366004611a7c565b610e44565b34801561045257600080fd5b5061018b610461366004611d97565b6001600160a01b03918216600090815260056020908152604080832093909416825291909152205460ff1690565b34801561049b57600080fd5b5061021a6104aa366004611c26565b610f2c565b60006001600160e01b031982166380ac58cd60e01b14806104e057506001600160e01b03198216635b5e139f60e01b145b806104fb57506301ffc9a760e01b6001600160e01b03198316145b92915050565b60606000805461051090611dca565b80601f016020809104026020016040519081016040528092919081815260200182805461053c90611dca565b80156105895780601f1061055e57610100808354040283529160200191610589565b820191906000526020600020905b81548152906001019060200180831161056c57829003601f168201915b5050505050905090565b6000818152600260205260408120546001600160a01b03166106115760405162461bcd60e51b815260206004820152602c60248201527f4552433732313a20617070726f76656420717565727920666f72206e6f6e657860448201526b34b9ba32b73a103a37b5b2b760a11b60648201526084015b60405180910390fd5b506000908152600460205260409020546001600160a01b031690565b600061063882610956565b9050806001600160a01b0316836001600160a01b031614156106a65760405162461bcd60e51b815260206004820152602160248201527f4552433732313a20617070726f76616c20746f2063757272656e74206f776e656044820152603960f91b6064820152608401610608565b336001600160a01b03821614806106c257506106c28133610461565b6107345760405162461bcd60e51b815260206004820152603860248201527f4552433732313a20617070726f76652063616c6c6572206973206e6f74206f7760448201527f6e6572206e6f7220617070726f76656420666f7220616c6c00000000000000006064820152608401610608565b61073e8383610fc4565b505050565b3361074d82610956565b6001600160a01b03161461076057600080fd5b60006009828154811061077557610775611e05565b6000918252602082206003600490920201908101805491935060ff9091169161079d83611e31565b91906101000a81548160ff021916908360ff160217905550505050565b6107c43382611032565b6107e05760405162461bcd60e51b815260040161060890611e51565b61073e838383611129565b6006546001600160a01b031633146108155760405162461bcd60e51b815260040161060890611ea2565b60006108296006546001600160a01b031690565b6040519091506001600160a01b038216904780156108fc02916000818181858888f19350505050158015610861573d6000803e3d6000fd5b5050565b61073e83838360405180602001604052806000815250610e0c565b6009818154811061089057600080fd5b90600052602060002090600402016000915090508060000180546108b390611dca565b80601f01602080910402602001604051908101604052809291908181526020018280546108df90611dca565b801561092c5780601f106109015761010080835404028352916020019161092c565b820191906000526020600020905b81548152906001019060200180831161090f57829003601f168201915b50505050600183015460028401546003909401549293909290915060ff8082169161010090041685565b6000818152600260205260408120546001600160a01b0316806104fb5760405162461bcd60e51b815260206004820152602960248201527f4552433732313a206f776e657220717565727920666f72206e6f6e657869737460448201526832b73a103a37b5b2b760b91b6064820152608401610608565b6008543410156109dc57600080fd5b6109e5816112c9565b50565b60006001600160a01b038216610a535760405162461bcd60e51b815260206004820152602a60248201527f4552433732313a2062616c616e636520717565727920666f7220746865207a65604482015269726f206164647265737360b01b6064820152608401610608565b506001600160a01b031660009081526003602052604090205490565b6006546001600160a01b03163314610a995760405162461bcd60e51b815260040161060890611ea2565b610aa36000611411565b565b60606009805480602002602001604051908101604052809291908181526020016000905b82821015610bc257838290600052602060002090600402016040518060a0016040529081600082018054610afc90611dca565b80601f0160208091040260200160405190810160405280929190818152602001828054610b2890611dca565b8015610b755780601f10610b4a57610100808354040283529160200191610b75565b820191906000526020600020905b815481529060010190602001808311610b5857829003601f168201915b50505091835250506001828101546020808401919091526002840154604084015260039093015460ff80821660608501526101009091041660809092019190915291835292019101610ac9565b50505050905090565b60606000610bd8836109e8565b67ffffffffffffffff811115610bf057610bf0611b51565b604051908082528060200260200182016040528015610c5957816020015b610c466040518060a00160405280606081526020016000815260200160008152602001600060ff168152602001600060ff1681525090565b815260200190600190039081610c0e5790505b5090506000805b600954811015610dba57846001600160a01b0316610c7d82610956565b6001600160a01b03161415610da85760098181548110610c9f57610c9f611e05565b90600052602060002090600402016040518060a0016040529081600082018054610cc890611dca565b80601f0160208091040260200160405190810160405280929190818152602001828054610cf490611dca565b8015610d415780601f10610d1657610100808354040283529160200191610d41565b820191906000526020600020905b815481529060010190602001808311610d2457829003601f168201915b5050509183525050600182015460208201526002820154604082015260039091015460ff8082166060840152610100909104166080909101528351849084908110610d8e57610d8e611e05565b60200260200101819052508180610da490611ed7565b9250505b80610db281611ed7565b915050610c60565b50909392505050565b6006546001600160a01b03163314610ded5760405162461bcd60e51b815260040161060890611ea2565b600855565b60606001805461051090611dca565b610861338383611463565b610e163383611032565b610e325760405162461bcd60e51b815260040161060890611e51565b610e3e84848484611532565b50505050565b6000818152600260205260409020546060906001600160a01b0316610ec35760405162461bcd60e51b815260206004820152602f60248201527f4552433732314d657461646174613a2055524920717565727920666f72206e6f60448201526e3732bc34b9ba32b73a103a37b5b2b760891b6064820152608401610608565b6000610eda60408051602081019091526000815290565b90506000815111610efa5760405180602001604052806000815250610f25565b80610f0484611565565b604051602001610f15929190611ef2565b6040516020818303038152906040525b9392505050565b6006546001600160a01b03163314610f565760405162461bcd60e51b815260040161060890611ea2565b6001600160a01b038116610fbb5760405162461bcd60e51b815260206004820152602660248201527f4f776e61626c653a206e6577206f776e657220697320746865207a65726f206160448201526564647265737360d01b6064820152608401610608565b6109e581611411565b600081815260046020526040902080546001600160a01b0319166001600160a01b0384169081179091558190610ff982610956565b6001600160a01b03167f8c5be1e5ebec7d5bd14f71427d1e84f3dd0314c0f7b2291e5b200ac8c7c3b92560405160405180910390a45050565b6000818152600260205260408120546001600160a01b03166110ab5760405162461bcd60e51b815260206004820152602c60248201527f4552433732313a206f70657261746f7220717565727920666f72206e6f6e657860448201526b34b9ba32b73a103a37b5b2b760a11b6064820152608401610608565b60006110b683610956565b9050806001600160a01b0316846001600160a01b031614806110f15750836001600160a01b03166110e684610593565b6001600160a01b0316145b8061112157506001600160a01b0380821660009081526005602090815260408083209388168352929052205460ff165b949350505050565b826001600160a01b031661113c82610956565b6001600160a01b0316146111a45760405162461bcd60e51b815260206004820152602960248201527f4552433732313a207472616e73666572206f6620746f6b656e2074686174206960448201526839903737ba1037bbb760b91b6064820152608401610608565b6001600160a01b0382166112065760405162461bcd60e51b8152602060048201526024808201527f4552433732313a207472616e7366657220746f20746865207a65726f206164646044820152637265737360e01b6064820152608401610608565b611211600082610fc4565b6001600160a01b038316600090815260036020526040812080546001929061123a908490611f21565b90915550506001600160a01b0382166000908152600360205260408120805460019290611268908490611f38565b909155505060008181526002602052604080822080546001600160a01b0319166001600160a01b0386811691821790925591518493918716917fddf252ad1be2c89b69c2b068fc378daa952ba7f163c4a11628f55a4df523b3ef91a4505050565b60006112d56064611663565b905060006112e9662386f26fc10000611663565b6040805160a08101825285815260075460208083019190915291810183905260016060820181905260ff86166080830152600980549182018155600052815180519495509193849360049092027f6e1540171b6c0c960b71a7020d9f60077f6af931a8bbf590da0223dacf75c7af0192611367928492910190611945565b50602082015160018201556040820151600282015560608201516003909101805460809093015160ff9081166101000261ffff199094169216919091179190911790556007546113b89033906116b8565b600754604080519182526020820184905233917f24d2d558f98bdd9d21339e119fc0b03e213c7d05affd838ac2ee136d90e3bbeb910160405180910390a26007805490600061140683611ed7565b919050555050505050565b600680546001600160a01b038381166001600160a01b0319831681179093556040519116919082907f8be0079c531659141344cd1fd0a4f28419497f9722a3daafe3b4186f6b6457e090600090a35050565b816001600160a01b0316836001600160a01b031614156114c55760405162461bcd60e51b815260206004820152601960248201527f4552433732313a20617070726f766520746f2063616c6c6572000000000000006044820152606401610608565b6001600160a01b03838116600081815260056020908152604080832094871680845294825291829020805460ff191686151590811790915591519182527f17307eab39ab6107e8899845ad3d59bd9653f200f220920489ca2b5937696c31910160405180910390a3505050565b61153d848484611129565b611549848484846116d2565b610e3e5760405162461bcd60e51b815260040161060890611f50565b6060816115895750506040805180820190915260018152600360fc1b602082015290565b8160005b81156115b3578061159d81611ed7565b91506115ac9050600a83611fb8565b915061158d565b60008167ffffffffffffffff8111156115ce576115ce611b51565b6040519080825280601f01601f1916602001820160405280156115f8576020820181803683370190505b5090505b84156111215761160d600183611f21565b915061161a600a86611fcc565b611625906030611f38565b60f81b81838151811061163a5761163a611e05565b60200101906001600160f81b031916908160001a90535061165c600a86611fb8565b94506115fc565b600080423360405160200161169492919091825260601b6bffffffffffffffffffffffff1916602082015260340190565b60408051601f1981840301815291905280516020909101209050610f258382611fcc565b6108618282604051806020016040528060008152506117d0565b60006001600160a01b0384163b156117c557604051630a85bd0160e11b81526001600160a01b0385169063150b7a0290611716903390899088908890600401611fe0565b6020604051808303816000875af1925050508015611751575060408051601f3d908101601f1916820190925261174e9181019061201d565b60015b6117ab573d80801561177f576040519150601f19603f3d011682016040523d82523d6000602084013e611784565b606091505b5080516117a35760405162461bcd60e51b815260040161060890611f50565b805181602001fd5b6001600160e01b031916630a85bd0160e11b149050611121565b506001949350505050565b6117da8383611803565b6117e760008484846116d2565b61073e5760405162461bcd60e51b815260040161060890611f50565b6001600160a01b0382166118595760405162461bcd60e51b815260206004820181905260248201527f4552433732313a206d696e7420746f20746865207a65726f20616464726573736044820152606401610608565b6000818152600260205260409020546001600160a01b0316156118be5760405162461bcd60e51b815260206004820152601c60248201527f4552433732313a20746f6b656e20616c7265616479206d696e746564000000006044820152606401610608565b6001600160a01b03821660009081526003602052604081208054600192906118e7908490611f38565b909155505060008181526002602052604080822080546001600160a01b0319166001600160a01b03861690811790915590518392907fddf252ad1be2c89b69c2b068fc378daa952ba7f163c4a11628f55a4df523b3ef908290a45050565b82805461195190611dca565b90600052602060002090601f01602090048101928261197357600085556119b9565b82601f1061198c57805160ff19168380011785556119b9565b828001600101855582156119b9579182015b828111156119b957825182559160200191906001019061199e565b506119c59291506119c9565b5090565b5b808211156119c557600081556001016119ca565b6001600160e01b0319811681146109e557600080fd5b600060208284031215611a0657600080fd5b8135610f25816119de565b60005b83811015611a2c578181015183820152602001611a14565b83811115610e3e5750506000910152565b60008151808452611a55816020860160208601611a11565b601f01601f19169290920160200192915050565b602081526000610f256020830184611a3d565b600060208284031215611a8e57600080fd5b5035919050565b80356001600160a01b0381168114611aac57600080fd5b919050565b60008060408385031215611ac457600080fd5b611acd83611a95565b946020939093013593505050565b600080600060608486031215611af057600080fd5b611af984611a95565b9250611b0760208501611a95565b9150604084013590509250925092565b60a081526000611b2a60a0830188611a3d565b602083019690965250604081019390935260ff918216606084015216608090910152919050565b634e487b7160e01b600052604160045260246000fd5b600067ffffffffffffffff80841115611b8257611b82611b51565b604051601f8501601f19908116603f01168101908282118183101715611baa57611baa611b51565b81604052809350858152868686011115611bc357600080fd5b858560208301376000602087830101525050509392505050565b600060208284031215611bef57600080fd5b813567ffffffffffffffff811115611c0657600080fd5b8201601f81018413611c1757600080fd5b61112184823560208401611b67565b600060208284031215611c3857600080fd5b610f2582611a95565b60006020808301818452808551808352604092508286019150828160051b87010184880160005b83811015611cd157603f19898403018552815160a08151818652611c8e82870182611a3d565b838b0151878c0152898401518a88015260608085015160ff9081169189019190915260809485015116939096019290925250509386019390860190600101611c68565b509098975050505050505050565b60008060408385031215611cf257600080fd5b611cfb83611a95565b915060208301358015158114611d1057600080fd5b809150509250929050565b60008060008060808587031215611d3157600080fd5b611d3a85611a95565b9350611d4860208601611a95565b925060408501359150606085013567ffffffffffffffff811115611d6b57600080fd5b8501601f81018713611d7c57600080fd5b611d8b87823560208401611b67565b91505092959194509250565b60008060408385031215611daa57600080fd5b611db383611a95565b9150611dc160208401611a95565b90509250929050565b600181811c90821680611dde57607f821691505b60208210811415611dff57634e487b7160e01b600052602260045260246000fd5b50919050565b634e487b7160e01b600052603260045260246000fd5b634e487b7160e01b600052601160045260246000fd5b600060ff821660ff811415611e4857611e48611e1b565b60010192915050565b60208082526031908201527f4552433732313a207472616e736665722063616c6c6572206973206e6f74206f6040820152701ddb995c881b9bdc88185c1c1c9bdd9959607a1b606082015260800190565b6020808252818101527f4f776e61626c653a2063616c6c6572206973206e6f7420746865206f776e6572604082015260600190565b6000600019821415611eeb57611eeb611e1b565b5060010190565b60008351611f04818460208801611a11565b835190830190611f18818360208801611a11565b01949350505050565b600082821015611f3357611f33611e1b565b500390565b60008219821115611f4b57611f4b611e1b565b500190565b60208082526032908201527f4552433732313a207472616e7366657220746f206e6f6e20455243373231526560408201527131b2b4bb32b91034b6b83632b6b2b73a32b960711b606082015260800190565b634e487b7160e01b600052601260045260246000fd5b600082611fc757611fc7611fa2565b500490565b600082611fdb57611fdb611fa2565b500690565b6001600160a01b038581168252841660208201526040810183905260806060820181905260009061201390830184611a3d565b9695505050505050565b60006020828403121561202f57600080fd5b8151610f25816119de56fea26469706673582212208f78cf57155107c680af3758b9896e01e8d46904a407ca82519c31b909e118f564736f6c634300080a0033",
  "immutableReferences": {},
  "source": "// SPDX-License-Identifier: MIT\r\npragma solidity ^0.8.0;\r\n\r\n// Importacin de los Smart Contract: ERC721.sol y Ownable.sol\r\nimport \"@openzeppelin/contracts/token/ERC721/ERC721.sol\";\r\nimport \"@openzeppelin/contracts/access/Ownable.sol\";\r\n\r\n// Creacin del Smart Contract para el Videojuego NFT\r\ncontract LipToken is ERC721, Ownable {\r\n\r\n    // Constructor de mi Smart Contract\r\n    constructor (string memory _name, string memory _symbol)\r\n    ERC721(_name, _symbol) {}\r\n\r\n    // ============================================\r\n    // Declaraciones iniciales\r\n\r\n    // Contador de tokens NFT\r\n    uint256 COUNTER;\r\n    // Fijacin en el precio de los Tokens NFT\r\n    uint256 fee = 1 ether;\r\n    // Estructura de datos con las propiedades del lip (labio)\r\n    struct Lip {\r\n        string name;\r\n        uint256 id;\r\n        uint256 dna;\r\n        uint8 level;\r\n        uint8 rarity;\r\n    }\r\n    // Estructura de almacenamiento\r\n    Lip [] public lips;\r\n    // Declaracin de un evento \r\n    event NewLip(address indexed owner, uint256 id, uint256 dna);\r\n\r\n    // ============================================\r\n    // Funciones de ayuda \r\n\r\n    // Asignacin de un nmero aleatorio\r\n    function _createRandomNum(uint256 _mod) internal view returns (uint256) {\r\n        uint256 randomNum = uint256(keccak256(abi.encodePacked(block.timestamp, msg.sender)));\r\n        return randomNum % _mod; \r\n    }\r\n\r\n    // Actualizacin del precio del Token NFT\r\n    function updateFee(uint256 _fee) external onlyOwner {\r\n        fee = _fee;\r\n    }\r\n\r\n    // Extraccin de los ethers del Smart Contract hacia el Owner \r\n    function withdraw() external payable onlyOwner {\r\n        address payable _owner = payable(owner());\r\n        _owner.transfer(address(this).balance);\r\n    }\r\n\r\n    // Creacin del Token NFT (lip/labio)\r\n    function _createLip(string memory _name) internal {\r\n        uint8 randRarity = uint8(_createRandomNum(100));\r\n        uint randDna = _createRandomNum(10**16);\r\n        Lip memory newLip = Lip(_name, COUNTER, randDna, 1, randRarity);\r\n        lips.push(newLip);\r\n        _safeMint(msg.sender, COUNTER);\r\n        emit NewLip(msg.sender, COUNTER, randDna);\r\n        COUNTER++;\r\n    }\r\n\r\n    // ============================================\r\n    // Creacin de un labio aleatorio\r\n    function createRandomLip(string memory _name) public payable {\r\n        require(msg.value >= fee);\r\n        _createLip(_name);\r\n    }\r\n\r\n    // Obtencin de todos los lips (labios)\r\n    function getLips() public view returns (Lip [] memory) {\r\n        return lips;\r\n    }\r\n\r\n    // Visualizar el balance del Smart Contract \r\n    function moneySmartContract() public view returns (uint256){\r\n        return address(this).balance;\r\n    }\r\n\r\n    // Visualizar la direccin del Smart Contract\r\n    function addressSmartContract() public view returns (address) {\r\n        return address(this);\r\n    }\r\n\r\n    // Obtencin de los tokens NFT usuario\r\n    function getOwnerLips(address _owner) public view returns (Lip [] memory) {\r\n        Lip [] memory result = new Lip [] (balanceOf(_owner));\r\n        uint256 counter = 0;\r\n        for (uint256 i = 0; i <lips.length; i++) {\r\n            if (ownerOf(i) == _owner) {\r\n                result[counter] = lips[i];\r\n                counter++;\r\n            }\r\n        }\r\n        return result;\r\n    }\r\n\r\n    // Subir de nivel los tokens NFT \r\n    function levelUp(uint256 _lipId) public {\r\n        require(ownerOf(_lipId) == msg.sender);\r\n        Lip storage lip = lips[_lipId];\r\n        lip.level++;\r\n    }\r\n\r\n\r\n}",
  "sourcePath": "C:\\Users\\kingcreek\\Desktop\\ProyectoCrypto\\project\\contracts\\LipToken.sol",
  "compiler": {
    "name": "solc",
    "version": "0.8.10+commit.fc410830.Emscripten.clang"
  },
  "schemaVersion": "3.4.4",
  "updatedAt": "2022-02-14T17:44:47.289Z",
  "devdoc": {
    "kind": "dev",
    "methods": {
      "approve(address,uint256)": {
        "details": "See {IERC721-approve}."
      },
      "balanceOf(address)": {
        "details": "See {IERC721-balanceOf}."
      },
      "getApproved(uint256)": {
        "details": "See {IERC721-getApproved}."
      },
      "isApprovedForAll(address,address)": {
        "details": "See {IERC721-isApprovedForAll}."
      },
      "name()": {
        "details": "See {IERC721Metadata-name}."
      },
      "owner()": {
        "details": "Returns the address of the current owner."
      },
      "ownerOf(uint256)": {
        "details": "See {IERC721-ownerOf}."
      },
      "renounceOwnership()": {
        "details": "Leaves the contract without owner. It will not be possible to call `onlyOwner` functions anymore. Can only be called by the current owner. NOTE: Renouncing ownership will leave the contract without an owner, thereby removing any functionality that is only available to the owner."
      },
      "safeTransferFrom(address,address,uint256)": {
        "details": "See {IERC721-safeTransferFrom}."
      },
      "safeTransferFrom(address,address,uint256,bytes)": {
        "details": "See {IERC721-safeTransferFrom}."
      },
      "setApprovalForAll(address,bool)": {
        "details": "See {IERC721-setApprovalForAll}."
      },
      "supportsInterface(bytes4)": {
        "details": "See {IERC165-supportsInterface}."
      },
      "symbol()": {
        "details": "See {IERC721Metadata-symbol}."
      },
      "tokenURI(uint256)": {
        "details": "See {IERC721Metadata-tokenURI}."
      },
      "transferFrom(address,address,uint256)": {
        "details": "See {IERC721-transferFrom}."
      },
      "transferOwnership(address)": {
        "details": "Transfers ownership of the contract to a new account (`newOwner`). Can only be called by the current owner."
      }
    },
    "version": 1
  },
  "userdoc": {
    "kind": "user",
    "methods": {},
    "version": 1
  }
}