{
  "contractName": "NFTKyA",
  "abi": [
    {
      "inputs": [],
      "stateMutability": "nonpayable",
      "type": "constructor"
    },
    {
      "anonymous": false,
      "inputs": [
        {
          "indexed": true,
          "internalType": "address",
          "name": "owner",
          "type": "address"
        },
        {
          "indexed": true,
          "internalType": "address",
          "name": "approved",
          "type": "address"
        },
        {
          "indexed": true,
          "internalType": "uint256",
          "name": "tokenId",
          "type": "uint256"
        }
      ],
      "name": "Approval",
      "type": "event"
    },
    {
      "anonymous": false,
      "inputs": [
        {
          "indexed": true,
          "internalType": "address",
          "name": "owner",
          "type": "address"
        },
        {
          "indexed": true,
          "internalType": "address",
          "name": "operator",
          "type": "address"
        },
        {
          "indexed": false,
          "internalType": "bool",
          "name": "approved",
          "type": "bool"
        }
      ],
      "name": "ApprovalForAll",
      "type": "event"
    },
    {
      "anonymous": false,
      "inputs": [
        {
          "indexed": false,
          "internalType": "uint256",
          "name": "nftId",
          "type": "uint256"
        }
      ],
      "name": "NewNft",
      "type": "event"
    },
    {
      "anonymous": false,
      "inputs": [
        {
          "indexed": true,
          "internalType": "address",
          "name": "previousOwner",
          "type": "address"
        },
        {
          "indexed": true,
          "internalType": "address",
          "name": "newOwner",
          "type": "address"
        }
      ],
      "name": "OwnershipTransferred",
      "type": "event"
    },
    {
      "anonymous": false,
      "inputs": [
        {
          "indexed": false,
          "internalType": "address",
          "name": "_address",
          "type": "address"
        }
      ],
      "name": "TokenAddressUpdated",
      "type": "event"
    },
    {
      "anonymous": false,
      "inputs": [
        {
          "indexed": true,
          "internalType": "address",
          "name": "from",
          "type": "address"
        },
        {
          "indexed": true,
          "internalType": "address",
          "name": "to",
          "type": "address"
        },
        {
          "indexed": true,
          "internalType": "uint256",
          "name": "tokenId",
          "type": "uint256"
        }
      ],
      "name": "Transfer",
      "type": "event"
    },
    {
      "inputs": [
        {
          "internalType": "address",
          "name": "to",
          "type": "address"
        },
        {
          "internalType": "uint256",
          "name": "tokenId",
          "type": "uint256"
        }
      ],
      "name": "approve",
      "outputs": [],
      "stateMutability": "nonpayable",
      "type": "function"
    },
    {
      "inputs": [
        {
          "internalType": "address",
          "name": "owner",
          "type": "address"
        }
      ],
      "name": "balanceOf",
      "outputs": [
        {
          "internalType": "uint256",
          "name": "",
          "type": "uint256"
        }
      ],
      "stateMutability": "view",
      "type": "function",
      "constant": true
    },
    {
      "inputs": [
        {
          "internalType": "uint256",
          "name": "tokenId",
          "type": "uint256"
        }
      ],
      "name": "getApproved",
      "outputs": [
        {
          "internalType": "address",
          "name": "",
          "type": "address"
        }
      ],
      "stateMutability": "view",
      "type": "function",
      "constant": true
    },
    {
      "inputs": [
        {
          "internalType": "address",
          "name": "owner",
          "type": "address"
        },
        {
          "internalType": "address",
          "name": "operator",
          "type": "address"
        }
      ],
      "name": "isApprovedForAll",
      "outputs": [
        {
          "internalType": "bool",
          "name": "",
          "type": "bool"
        }
      ],
      "stateMutability": "view",
      "type": "function",
      "constant": true
    },
    {
      "inputs": [],
      "name": "name",
      "outputs": [
        {
          "internalType": "string",
          "name": "",
          "type": "string"
        }
      ],
      "stateMutability": "view",
      "type": "function",
      "constant": true
    },
    {
      "inputs": [],
      "name": "owner",
      "outputs": [
        {
          "internalType": "address",
          "name": "",
          "type": "address"
        }
      ],
      "stateMutability": "view",
      "type": "function",
      "constant": true
    },
    {
      "inputs": [
        {
          "internalType": "uint256",
          "name": "tokenId",
          "type": "uint256"
        }
      ],
      "name": "ownerOf",
      "outputs": [
        {
          "internalType": "address",
          "name": "",
          "type": "address"
        }
      ],
      "stateMutability": "view",
      "type": "function",
      "constant": true
    },
    {
      "inputs": [],
      "name": "renounceOwnership",
      "outputs": [],
      "stateMutability": "nonpayable",
      "type": "function"
    },
    {
      "inputs": [
        {
          "internalType": "address",
          "name": "from",
          "type": "address"
        },
        {
          "internalType": "address",
          "name": "to",
          "type": "address"
        },
        {
          "internalType": "uint256",
          "name": "tokenId",
          "type": "uint256"
        }
      ],
      "name": "safeTransferFrom",
      "outputs": [],
      "stateMutability": "nonpayable",
      "type": "function"
    },
    {
      "inputs": [
        {
          "internalType": "address",
          "name": "from",
          "type": "address"
        },
        {
          "internalType": "address",
          "name": "to",
          "type": "address"
        },
        {
          "internalType": "uint256",
          "name": "tokenId",
          "type": "uint256"
        },
        {
          "internalType": "bytes",
          "name": "_data",
          "type": "bytes"
        }
      ],
      "name": "safeTransferFrom",
      "outputs": [],
      "stateMutability": "nonpayable",
      "type": "function"
    },
    {
      "inputs": [
        {
          "internalType": "address",
          "name": "operator",
          "type": "address"
        },
        {
          "internalType": "bool",
          "name": "approved",
          "type": "bool"
        }
      ],
      "name": "setApprovalForAll",
      "outputs": [],
      "stateMutability": "nonpayable",
      "type": "function"
    },
    {
      "inputs": [
        {
          "internalType": "bytes4",
          "name": "interfaceId",
          "type": "bytes4"
        }
      ],
      "name": "supportsInterface",
      "outputs": [
        {
          "internalType": "bool",
          "name": "",
          "type": "bool"
        }
      ],
      "stateMutability": "view",
      "type": "function",
      "constant": true
    },
    {
      "inputs": [],
      "name": "symbol",
      "outputs": [
        {
          "internalType": "string",
          "name": "",
          "type": "string"
        }
      ],
      "stateMutability": "view",
      "type": "function",
      "constant": true
    },
    {
      "inputs": [
        {
          "internalType": "uint256",
          "name": "index",
          "type": "uint256"
        }
      ],
      "name": "tokenByIndex",
      "outputs": [
        {
          "internalType": "uint256",
          "name": "",
          "type": "uint256"
        }
      ],
      "stateMutability": "view",
      "type": "function",
      "constant": true
    },
    {
      "inputs": [
        {
          "internalType": "address",
          "name": "owner",
          "type": "address"
        },
        {
          "internalType": "uint256",
          "name": "index",
          "type": "uint256"
        }
      ],
      "name": "tokenOfOwnerByIndex",
      "outputs": [
        {
          "internalType": "uint256",
          "name": "",
          "type": "uint256"
        }
      ],
      "stateMutability": "view",
      "type": "function",
      "constant": true
    },
    {
      "inputs": [
        {
          "internalType": "uint256",
          "name": "tokenId",
          "type": "uint256"
        }
      ],
      "name": "tokenURI",
      "outputs": [
        {
          "internalType": "string",
          "name": "",
          "type": "string"
        }
      ],
      "stateMutability": "view",
      "type": "function",
      "constant": true
    },
    {
      "inputs": [],
      "name": "totalSupply",
      "outputs": [
        {
          "internalType": "uint256",
          "name": "",
          "type": "uint256"
        }
      ],
      "stateMutability": "view",
      "type": "function",
      "constant": true
    },
    {
      "inputs": [
        {
          "internalType": "address",
          "name": "from",
          "type": "address"
        },
        {
          "internalType": "address",
          "name": "to",
          "type": "address"
        },
        {
          "internalType": "uint256",
          "name": "tokenId",
          "type": "uint256"
        }
      ],
      "name": "transferFrom",
      "outputs": [],
      "stateMutability": "nonpayable",
      "type": "function"
    },
    {
      "inputs": [
        {
          "internalType": "address",
          "name": "newOwner",
          "type": "address"
        }
      ],
      "name": "transferOwnership",
      "outputs": [],
      "stateMutability": "nonpayable",
      "type": "function"
    },
    {
      "inputs": [
        {
          "internalType": "address",
          "name": "_address",
          "type": "address"
        }
      ],
      "name": "updateTokenAddress",
      "outputs": [],
      "stateMutability": "nonpayable",
      "type": "function"
    },
    {
      "inputs": [],
      "name": "_createNFT",
      "outputs": [],
      "stateMutability": "payable",
      "type": "function",
      "payable": true
    },
    {
      "inputs": [],
      "name": "withdraw",
      "outputs": [],
      "stateMutability": "payable",
      "type": "function",
      "payable": true
    },
    {
      "inputs": [],
      "name": "getAnimals",
      "outputs": [
        {
          "components": [
            {
              "internalType": "uint256",
              "name": "animalType",
              "type": "uint256"
            },
            {
              "internalType": "uint32",
              "name": "level",
              "type": "uint32"
            },
            {
              "internalType": "uint32",
              "name": "readyTime",
              "type": "uint32"
            }
          ],
          "internalType": "struct NFTKyA.Animal[]",
          "name": "",
          "type": "tuple[]"
        }
      ],
      "stateMutability": "view",
      "type": "function",
      "constant": true
    },
    {
      "inputs": [
        {
          "internalType": "address",
          "name": "_account",
          "type": "address"
        }
      ],
      "name": "getOwnerAnimalsWithIndex",
      "outputs": [
        {
          "components": [
            {
              "internalType": "uint256",
              "name": "animalType",
              "type": "uint256"
            },
            {
              "internalType": "uint32",
              "name": "level",
              "type": "uint32"
            },
            {
              "internalType": "uint32",
              "name": "readyTime",
              "type": "uint32"
            }
          ],
          "internalType": "struct NFTKyA.Animal[]",
          "name": "",
          "type": "tuple[]"
        }
      ],
      "stateMutability": "view",
      "type": "function",
      "constant": true
    }
  ],
  "bytecode": "0x6080604052670de0b6b3a7640000600c5562015180600d55670de0b6b3a7640000600e553480156200003057600080fd5b50604080518082018252600c81526b1ade58481b999d081d195cdd60a21b6020808301918252835180850190945260068452654e46544b794160d01b908401528151919291620000839160009162000112565b5080516200009990600190602084019062000112565b505050620000b6620000b0620000bc60201b60201c565b620000c0565b620001f5565b3390565b600a80546001600160a01b038381166001600160a01b0319831681179093556040519116919082907f8be0079c531659141344cd1fd0a4f28419497f9722a3daafe3b4186f6b6457e090600090a35050565b8280546200012090620001b8565b90600052602060002090601f0160209004810192826200014457600085556200018f565b82601f106200015f57805160ff19168380011785556200018f565b828001600101855582156200018f579182015b828111156200018f57825182559160200191906001019062000172565b506200019d929150620001a1565b5090565b5b808211156200019d5760008155600101620001a2565b600181811c90821680620001cd57607f821691505b60208210811415620001ef57634e487b7160e01b600052602260045260246000fd5b50919050565b61212180620002056000396000f3fe60806040526004361061014b5760003560e01c80636352211e116100b6578063a22cb4651161006f578063a22cb46514610392578063b88d4fde146103b2578063c87b56dd146103d2578063ddd21d79146103f2578063e985e9c5146103fa578063f2fde38b1461044357600080fd5b80636352211e146102ea5780636691461a1461030a57806370a082311461032a578063715018a61461034a5780638da5cb5b1461035f57806395d89b411461037d57600080fd5b80632f745c59116101085780632f745c59146102405780633ccfd60b1461026057806342842e0e146102685780634f6ccce714610288578063548742d8146102a857806356e915c9146102d557600080fd5b806301ffc9a71461015057806306fdde0314610185578063081812fc146101a7578063095ea7b3146101df57806318160ddd1461020157806323b872dd14610220575b600080fd5b34801561015c57600080fd5b5061017061016b366004611b4a565b610463565b60405190151581526020015b60405180910390f35b34801561019157600080fd5b5061019a61048e565b60405161017c9190611bbf565b3480156101b357600080fd5b506101c76101c2366004611bd2565b610520565b6040516001600160a01b03909116815260200161017c565b3480156101eb57600080fd5b506101ff6101fa366004611c07565b6105ba565b005b34801561020d57600080fd5b506008545b60405190815260200161017c565b34801561022c57600080fd5b506101ff61023b366004611c31565b6106d0565b34801561024c57600080fd5b5061021261025b366004611c07565b610701565b6101ff610797565b34801561027457600080fd5b506101ff610283366004611c31565b610811565b34801561029457600080fd5b506102126102a3366004611bd2565b61082c565b3480156102b457600080fd5b506102c86102c3366004611c6d565b6108bf565b60405161017c9190611c88565b3480156102e157600080fd5b506102c8610a6c565b3480156102f657600080fd5b506101c7610305366004611bd2565b610af1565b34801561031657600080fd5b506101ff610325366004611c6d565b610b68565b34801561033657600080fd5b50610212610345366004611c6d565b610be7565b34801561035657600080fd5b506101ff610c6e565b34801561036b57600080fd5b50600a546001600160a01b03166101c7565b34801561038957600080fd5b5061019a610ca4565b34801561039e57600080fd5b506101ff6103ad366004611cf9565b610cb3565b3480156103be57600080fd5b506101ff6103cd366004611d46565b610cbe565b3480156103de57600080fd5b5061019a6103ed366004611bd2565b610cf6565b6101ff610dde565b34801561040657600080fd5b50610170610415366004611e22565b6001600160a01b03918216600090815260056020908152604080832093909416825291909152205460ff1690565b34801561044f57600080fd5b506101ff61045e366004611c6d565b611053565b60006001600160e01b0319821663780e9d6360e01b14806104885750610488826110ee565b92915050565b60606000805461049d90611e55565b80601f01602080910402602001604051908101604052809291908181526020018280546104c990611e55565b80156105165780601f106104eb57610100808354040283529160200191610516565b820191906000526020600020905b8154815290600101906020018083116104f957829003601f168201915b5050505050905090565b6000818152600260205260408120546001600160a01b031661059e5760405162461bcd60e51b815260206004820152602c60248201527f4552433732313a20617070726f76656420717565727920666f72206e6f6e657860448201526b34b9ba32b73a103a37b5b2b760a11b60648201526084015b60405180910390fd5b506000908152600460205260409020546001600160a01b031690565b60006105c582610af1565b9050806001600160a01b0316836001600160a01b031614156106335760405162461bcd60e51b815260206004820152602160248201527f4552433732313a20617070726f76616c20746f2063757272656e74206f776e656044820152603960f91b6064820152608401610595565b336001600160a01b038216148061064f575061064f8133610415565b6106c15760405162461bcd60e51b815260206004820152603860248201527f4552433732313a20617070726f76652063616c6c6572206973206e6f74206f7760448201527f6e6572206e6f7220617070726f76656420666f7220616c6c00000000000000006064820152608401610595565b6106cb838361113e565b505050565b6106da33826111ac565b6106f65760405162461bcd60e51b815260040161059590611e8a565b6106cb8383836112a3565b600061070c83610be7565b821061076e5760405162461bcd60e51b815260206004820152602b60248201527f455243373231456e756d657261626c653a206f776e657220696e646578206f7560448201526a74206f6620626f756e647360a81b6064820152608401610595565b506001600160a01b03919091166000908152600660209081526040808320938352929052205490565b600a546001600160a01b031633146107c15760405162461bcd60e51b815260040161059590611edb565b60006107d5600a546001600160a01b031690565b6040519091506001600160a01b038216904780156108fc02916000818181858888f1935050505015801561080d573d6000803e3d6000fd5b5050565b6106cb83838360405180602001604052806000815250610cbe565b600061083760085490565b821061089a5760405162461bcd60e51b815260206004820152602c60248201527f455243373231456e756d657261626c653a20676c6f62616c20696e646578206f60448201526b7574206f6620626f756e647360a01b6064820152608401610595565b600882815481106108ad576108ad611f10565b90600052602060002001549050919050565b606060006108cc83610be7565b90508061091e576040805160008082526020820190925290610916565b60408051606081018252600080825260208083018290529282015282526000199092019101816108e95790505b509392505050565b60008167ffffffffffffffff81111561093957610939611d30565b60405190808252806020026020018201604052801561098457816020015b60408051606081018252600080825260208083018290529282015282526000199092019101816109575790505b509050600061099260085490565b9050600060015b828111610a5b576000818152600f60205260409020546001600160a01b0388811691161415610a4957601081815481106109d5576109d5611f10565b6000918252602091829020604080516060810182526002909302909101805483526001015463ffffffff808216948401949094526401000000009004909216918101919091528451859084908110610a2f57610a2f611f10565b60200260200101819052508180610a4590611f3c565b9250505b80610a5381611f3c565b915050610999565b509195945050505050565b50919050565b60606010805480602002602001604051908101604052809291908181526020016000905b82821015610ae857600084815260209081902060408051606081018252600286029092018054835260019081015463ffffffff8082168587015264010000000090910416918301919091529083529092019101610a90565b50505050905090565b6000818152600260205260408120546001600160a01b0316806104885760405162461bcd60e51b815260206004820152602960248201527f4552433732313a206f776e657220717565727920666f72206e6f6e657869737460448201526832b73a103a37b5b2b760b91b6064820152608401610595565b600a546001600160a01b03163314610b925760405162461bcd60e51b815260040161059590611edb565b600b80546001600160a01b0319166001600160a01b0383169081179091556040519081527f2f0c7f17be551d1f4566672cd67adbe50173e96632f56ff80d80acc4ac00f328906020015b60405180910390a150565b60006001600160a01b038216610c525760405162461bcd60e51b815260206004820152602a60248201527f4552433732313a2062616c616e636520717565727920666f7220746865207a65604482015269726f206164647265737360b01b6064820152608401610595565b506001600160a01b031660009081526003602052604090205490565b600a546001600160a01b03163314610c985760405162461bcd60e51b815260040161059590611edb565b610ca2600061144e565b565b60606001805461049d90611e55565b61080d3383836114a0565b610cc833836111ac565b610ce45760405162461bcd60e51b815260040161059590611e8a565b610cf08484848461156f565b50505050565b6000818152600260205260409020546060906001600160a01b0316610d755760405162461bcd60e51b815260206004820152602f60248201527f4552433732314d657461646174613a2055524920717565727920666f72206e6f60448201526e3732bc34b9ba32b73a103a37b5b2b760891b6064820152608401610595565b6000610d8c60408051602081019091526000815290565b90506000815111610dac5760405180602001604052806000815250610dd7565b80610db6846115a2565b604051602001610dc7929190611f57565b6040516020818303038152906040525b9392505050565b600b54600e546040516323b872dd60e01b815233600482015230602482015260448101919091526001600160a01b03909116906323b872dd906064016020604051808303816000875af1158015610e39573d6000803e3d6000fd5b505050506040513d601f19601f82011682018060405250810190610e5d9190611f86565b610ea95760405162461bcd60e51b815260206004820152601860248201527f596f75206e65656420746f2070617920666f72207468697300000000000000006044820152606401610595565b600e54600b546040516370a0823160e01b81523360048201526001600160a01b03909116906370a0823190602401602060405180830381865afa158015610ef4573d6000803e3d6000fd5b505050506040513d601f19601f82011682018060405250810190610f189190611fa3565b1015610f665760405162461bcd60e51b815260206004820152601c60248201527f596f7520646f6e2774206861766520656e6f75676820746f6b656e73000000006044820152606401610595565b6040805160608101825260018082526020820152600d54601092820190610f8d9042611fbc565b63ffffffff908116909152825460018181018555600094855260208086208551600290940201928355840151918101805460409095015184166401000000000267ffffffffffffffff199095169290931691909117929092179055601054610ff59190611fd4565b6000818152600f6020526040902080546001600160a01b0319163390811790915590915061102390826116a0565b6040518181527f2eb1cf1ef13f00711a0686549bab06ca31b1c8fa490532ec4010199b09f8845d90602001610bdc565b600a546001600160a01b0316331461107d5760405162461bcd60e51b815260040161059590611edb565b6001600160a01b0381166110e25760405162461bcd60e51b815260206004820152602660248201527f4f776e61626c653a206e6577206f776e657220697320746865207a65726f206160448201526564647265737360d01b6064820152608401610595565b6110eb8161144e565b50565b60006001600160e01b031982166380ac58cd60e01b148061111f57506001600160e01b03198216635b5e139f60e01b145b8061048857506301ffc9a760e01b6001600160e01b0319831614610488565b600081815260046020526040902080546001600160a01b0319166001600160a01b038416908117909155819061117382610af1565b6001600160a01b03167f8c5be1e5ebec7d5bd14f71427d1e84f3dd0314c0f7b2291e5b200ac8c7c3b92560405160405180910390a45050565b6000818152600260205260408120546001600160a01b03166112255760405162461bcd60e51b815260206004820152602c60248201527f4552433732313a206f70657261746f7220717565727920666f72206e6f6e657860448201526b34b9ba32b73a103a37b5b2b760a11b6064820152608401610595565b600061123083610af1565b9050806001600160a01b0316846001600160a01b0316148061126b5750836001600160a01b031661126084610520565b6001600160a01b0316145b8061129b57506001600160a01b0380821660009081526005602090815260408083209388168352929052205460ff165b949350505050565b826001600160a01b03166112b682610af1565b6001600160a01b03161461131e5760405162461bcd60e51b815260206004820152602960248201527f4552433732313a207472616e73666572206f6620746f6b656e2074686174206960448201526839903737ba1037bbb760b91b6064820152608401610595565b6001600160a01b0382166113805760405162461bcd60e51b8152602060048201526024808201527f4552433732313a207472616e7366657220746f20746865207a65726f206164646044820152637265737360e01b6064820152608401610595565b61138b8383836117ee565b61139660008261113e565b6001600160a01b03831660009081526003602052604081208054600192906113bf908490611fd4565b90915550506001600160a01b03821660009081526003602052604081208054600192906113ed908490611fbc565b909155505060008181526002602052604080822080546001600160a01b0319166001600160a01b0386811691821790925591518493918716917fddf252ad1be2c89b69c2b068fc378daa952ba7f163c4a11628f55a4df523b3ef91a4505050565b600a80546001600160a01b038381166001600160a01b0319831681179093556040519116919082907f8be0079c531659141344cd1fd0a4f28419497f9722a3daafe3b4186f6b6457e090600090a35050565b816001600160a01b0316836001600160a01b031614156115025760405162461bcd60e51b815260206004820152601960248201527f4552433732313a20617070726f766520746f2063616c6c6572000000000000006044820152606401610595565b6001600160a01b03838116600081815260056020908152604080832094871680845294825291829020805460ff191686151590811790915591519182527f17307eab39ab6107e8899845ad3d59bd9653f200f220920489ca2b5937696c31910160405180910390a3505050565b61157a8484846112a3565b611586848484846118a6565b610cf05760405162461bcd60e51b815260040161059590611feb565b6060816115c65750506040805180820190915260018152600360fc1b602082015290565b8160005b81156115f057806115da81611f3c565b91506115e99050600a83612053565b91506115ca565b60008167ffffffffffffffff81111561160b5761160b611d30565b6040519080825280601f01601f191660200182016040528015611635576020820181803683370190505b5090505b841561129b5761164a600183611fd4565b9150611657600a86612067565b611662906030611fbc565b60f81b81838151811061167757611677611f10565b60200101906001600160f81b031916908160001a905350611699600a86612053565b9450611639565b6001600160a01b0382166116f65760405162461bcd60e51b815260206004820181905260248201527f4552433732313a206d696e7420746f20746865207a65726f20616464726573736044820152606401610595565b6000818152600260205260409020546001600160a01b03161561175b5760405162461bcd60e51b815260206004820152601c60248201527f4552433732313a20746f6b656e20616c7265616479206d696e746564000000006044820152606401610595565b611767600083836117ee565b6001600160a01b0382166000908152600360205260408120805460019290611790908490611fbc565b909155505060008181526002602052604080822080546001600160a01b0319166001600160a01b03861690811790915590518392907fddf252ad1be2c89b69c2b068fc378daa952ba7f163c4a11628f55a4df523b3ef908290a45050565b6001600160a01b0383166118495761184481600880546000838152600960205260408120829055600182018355919091527ff3f7a9fe364faab93b216da50a3214154f22a0a2b415b23a84c8169e8b636ee30155565b61186c565b816001600160a01b0316836001600160a01b03161461186c5761186c83826119a4565b6001600160a01b038216611883576106cb81611a41565b826001600160a01b0316826001600160a01b0316146106cb576106cb8282611af0565b60006001600160a01b0384163b1561199957604051630a85bd0160e11b81526001600160a01b0385169063150b7a02906118ea90339089908890889060040161207b565b6020604051808303816000875af1925050508015611925575060408051601f3d908101601f19168201909252611922918101906120b8565b60015b61197f573d808015611953576040519150601f19603f3d011682016040523d82523d6000602084013e611958565b606091505b5080516119775760405162461bcd60e51b815260040161059590611feb565b805181602001fd5b6001600160e01b031916630a85bd0160e11b14905061129b565b506001949350505050565b600060016119b184610be7565b6119bb9190611fd4565b600083815260076020526040902054909150808214611a0e576001600160a01b03841660009081526006602090815260408083208584528252808320548484528184208190558352600790915290208190555b5060009182526007602090815260408084208490556001600160a01b039094168352600681528383209183525290812055565b600854600090611a5390600190611fd4565b60008381526009602052604081205460088054939450909284908110611a7b57611a7b611f10565b906000526020600020015490508060088381548110611a9c57611a9c611f10565b6000918252602080832090910192909255828152600990915260408082208490558582528120556008805480611ad457611ad46120d5565b6001900381819060005260206000200160009055905550505050565b6000611afb83610be7565b6001600160a01b039093166000908152600660209081526040808320868452825280832085905593825260079052919091209190915550565b6001600160e01b0319811681146110eb57600080fd5b600060208284031215611b5c57600080fd5b8135610dd781611b34565b60005b83811015611b82578181015183820152602001611b6a565b83811115610cf05750506000910152565b60008151808452611bab816020860160208601611b67565b601f01601f19169290920160200192915050565b602081526000610dd76020830184611b93565b600060208284031215611be457600080fd5b5035919050565b80356001600160a01b0381168114611c0257600080fd5b919050565b60008060408385031215611c1a57600080fd5b611c2383611beb565b946020939093013593505050565b600080600060608486031215611c4657600080fd5b611c4f84611beb565b9250611c5d60208501611beb565b9150604084013590509250925092565b600060208284031215611c7f57600080fd5b610dd782611beb565b602080825282518282018190526000919060409081850190868401855b82811015611cde578151805185528681015163ffffffff9081168887015290860151168585015260609093019290850190600101611ca5565b5091979650505050505050565b80151581146110eb57600080fd5b60008060408385031215611d0c57600080fd5b611d1583611beb565b91506020830135611d2581611ceb565b809150509250929050565b634e487b7160e01b600052604160045260246000fd5b60008060008060808587031215611d5c57600080fd5b611d6585611beb565b9350611d7360208601611beb565b925060408501359150606085013567ffffffffffffffff80821115611d9757600080fd5b818701915087601f830112611dab57600080fd5b813581811115611dbd57611dbd611d30565b604051601f8201601f19908116603f01168101908382118183101715611de557611de5611d30565b816040528281528a6020848701011115611dfe57600080fd5b82602086016020830137600060208483010152809550505050505092959194509250565b60008060408385031215611e3557600080fd5b611e3e83611beb565b9150611e4c60208401611beb565b90509250929050565b600181811c90821680611e6957607f821691505b60208210811415610a6657634e487b7160e01b600052602260045260246000fd5b60208082526031908201527f4552433732313a207472616e736665722063616c6c6572206973206e6f74206f6040820152701ddb995c881b9bdc88185c1c1c9bdd9959607a1b606082015260800190565b6020808252818101527f4f776e61626c653a2063616c6c6572206973206e6f7420746865206f776e6572604082015260600190565b634e487b7160e01b600052603260045260246000fd5b634e487b7160e01b600052601160045260246000fd5b6000600019821415611f5057611f50611f26565b5060010190565b60008351611f69818460208801611b67565b835190830190611f7d818360208801611b67565b01949350505050565b600060208284031215611f9857600080fd5b8151610dd781611ceb565b600060208284031215611fb557600080fd5b5051919050565b60008219821115611fcf57611fcf611f26565b500190565b600082821015611fe657611fe6611f26565b500390565b60208082526032908201527f4552433732313a207472616e7366657220746f206e6f6e20455243373231526560408201527131b2b4bb32b91034b6b83632b6b2b73a32b960711b606082015260800190565b634e487b7160e01b600052601260045260246000fd5b6000826120625761206261203d565b500490565b6000826120765761207661203d565b500690565b6001600160a01b03858116825284166020820152604081018390526080606082018190526000906120ae90830184611b93565b9695505050505050565b6000602082840312156120ca57600080fd5b8151610dd781611b34565b634e487b7160e01b600052603160045260246000fdfea2646970667358221220ffb5b0893f0b89c50d07c9544f5a91f1d043dfcec8a8d357548d2479b2acbe3264736f6c634300080a0033",
  "immutableReferences": {},
  "source": "// SPDX-License-Identifier: MIT\r\npragma solidity ^0.8.10;\r\n\r\nimport \"@openzeppelin/contracts/token/ERC20/ERC20.sol\";\r\n//import \"@openzeppelin/contracts/token/ERC721/ERC721.sol\";\r\nimport \"@openzeppelin/contracts/token/ERC721/extensions/ERC721Enumerable.sol\";\r\nimport \"@openzeppelin/contracts/access/Ownable.sol\";\r\nimport \"./Oracle.sol\";\r\n\r\ncontract NFTKyA is ERC721Enumerable, Ownable {\r\n    \r\n    //constructor (string memory _name, string memory _symbol)\r\n    //ERC721(_name, _symbol) {}\r\n\r\n    constructor() ERC721(\"kya nft test\", \"NFTKyA\") {}\r\n    \r\n    struct Animal {\r\n        uint animalType;\r\n        uint32 level;\r\n        uint32 readyTime;\r\n    }\r\n\r\n\r\n    address private KyAToken;\r\n    uint256 fee = 1 ether;\r\n    uint private cooldownTime = 1 days;\r\n    uint256 private price = 1*10**18;\r\n\r\n    mapping (uint => address) private animalToOwner;\r\n    Animal[] private animals;\r\n    \r\n    \r\n    event NewNft(uint nftId);\r\n    event TokenAddressUpdated(address _address);\r\n\r\n    // Update token contract address\r\n    function updateTokenAddress(address _address) external onlyOwner {\r\n        KyAToken = _address;\r\n        emit TokenAddressUpdated(_address);\r\n    }\r\n\r\n    function _createNFT() public payable {\r\n        //payable(msg.sender).transfer(10 ether);\r\n        require(ERC20(KyAToken).transferFrom(msg.sender, address(this), price), \"You need to pay for this\");\r\n        require(ERC20(KyAToken).balanceOf(msg.sender) >= price, \"You don't have enough tokens\");\r\n        animals.push(Animal(1, 1, uint32(block.timestamp + cooldownTime)));\r\n        uint id = animals.length - 1;\r\n        \r\n        animalToOwner[id] = msg.sender;\r\n        //ownerZombieCount[msg.sender]++;\r\n        _mint(msg.sender, id);\r\n        //_beforeTokenTransfer(address(this), msg.sender, id);\r\n        \r\n        emit NewNft(id);\r\n        \r\n    }\r\n\r\n    // Extraccin de los ethers del Smart Contract hacia el Owner \r\n    function withdraw() external payable onlyOwner {\r\n        address payable _owner = payable(owner());\r\n        _owner.transfer(address(this).balance);\r\n    }\r\n\r\n    // return all NFTs\r\n    function getAnimals() public view returns (Animal [] memory) {\r\n        return animals;\r\n    }\r\n\r\n    // return all owner NFTs by index\r\n    function getOwnerAnimalsWithIndex(address _account/*, uint _index*/) public view returns (Animal[] memory) {\r\n\r\n        uint256 tokenCount = balanceOf(_account);\r\n\r\n        if (tokenCount == 0) {\r\n            // Return an empty array\r\n            return new Animal[](0);\r\n        } else {\r\n            Animal[] memory result = new Animal[](tokenCount);\r\n            uint256 totalCats = totalSupply();\r\n            uint256 resultIndex = 0;\r\n\r\n            // We count on the fact that all cats have IDs starting at 1 and increasing\r\n            // sequentially up to the totalCat count.\r\n\r\n            for (uint256 catId = 1; catId <= totalCats; catId++) {\r\n                if (animalToOwner[catId] == _account) {\r\n                    result[resultIndex] = animals[catId];\r\n                    resultIndex++;\r\n                }\r\n            }\r\n\r\n            return result;\r\n        }\r\n    }\r\n\r\n    // return all owner NFTs\r\n    /*function getOwnerLips(address _owner) public view returns (Animal [] memory) {\r\n\r\n        Animal [] memory result = new Animal [] (balanceOf(_owner));\r\n        uint256 counter = 0;\r\n        for (uint256 i = 0; i <animals.length; i++) {\r\n            if (ownerOf(i) == _owner) {\r\n                result[counter] = animals[i];\r\n                counter++;\r\n            }\r\n        }\r\n        return result;\r\n    }*/\r\n\r\n\r\n    \r\n\r\n    /*\r\n    event NewNft(uint nftId, string name, uint dna);\r\n\r\n    uint dnaDigits = 16;\r\n    uint dnaModulus = 10 ** dnaDigits;\r\n    uint cooldownTime = 1 days;\r\n\r\n    struct Zombie {\r\n      string name;\r\n      uint dna;\r\n      uint32 level;\r\n      uint32 readyTime;\r\n    }\r\n\r\n    Zombie[] public zombies;\r\n\r\n    mapping (uint => address) public zombieToOwner;\r\n    mapping (address => uint) ownerZombieCount;\r\n\r\n    function _createNFT(string memory _name, uint _dna) internal {\r\n        \r\n        zombies.push(Zombie(_name, _dna, 1, uint32(block.timestamp + cooldownTime)));\r\n        uint256 id = zombies.length - 1;\r\n        zombieToOwner[id] = msg.sender;\r\n        ownerZombieCount[msg.sender]++;\r\n        emit NewNft(id, _name, _dna);\r\n    }\r\n\r\n    function _generateRandomDna(string memory _str) private view returns (uint) {\r\n        uint rand = uint(keccak256(abi.encodePacked(_str)));\r\n        return rand % dnaModulus;\r\n    }\r\n\r\n    function createRandomNFT(string memory _name) public {\r\n        require(ownerZombieCount[msg.sender] == 0);\r\n        uint randDna = _generateRandomDna(_name);\r\n        randDna = randDna - randDna % 100;\r\n        _createNFT(_name, randDna);\r\n    }\r\n    */\r\n\r\n}\r\n",
  "sourcePath": "C:\\Users\\kingcreek\\Desktop\\ProyectoCrypto\\project\\contracts\\NFTKyA.sol",
  "compiler": {
    "name": "solc",
    "version": "0.8.10+commit.fc410830.Emscripten.clang"
  },
  "schemaVersion": "3.4.4",
  "updatedAt": "2022-02-14T17:44:52.397Z",
  "networkType": "ethereum",
  "devdoc": {
    "kind": "dev",
    "methods": {
      "approve(address,uint256)": {
        "details": "See {IERC721-approve}."
      },
      "balanceOf(address)": {
        "details": "See {IERC721-balanceOf}."
      },
      "getApproved(uint256)": {
        "details": "See {IERC721-getApproved}."
      },
      "isApprovedForAll(address,address)": {
        "details": "See {IERC721-isApprovedForAll}."
      },
      "name()": {
        "details": "See {IERC721Metadata-name}."
      },
      "owner()": {
        "details": "Returns the address of the current owner."
      },
      "ownerOf(uint256)": {
        "details": "See {IERC721-ownerOf}."
      },
      "renounceOwnership()": {
        "details": "Leaves the contract without owner. It will not be possible to call `onlyOwner` functions anymore. Can only be called by the current owner. NOTE: Renouncing ownership will leave the contract without an owner, thereby removing any functionality that is only available to the owner."
      },
      "safeTransferFrom(address,address,uint256)": {
        "details": "See {IERC721-safeTransferFrom}."
      },
      "safeTransferFrom(address,address,uint256,bytes)": {
        "details": "See {IERC721-safeTransferFrom}."
      },
      "setApprovalForAll(address,bool)": {
        "details": "See {IERC721-setApprovalForAll}."
      },
      "supportsInterface(bytes4)": {
        "details": "See {IERC165-supportsInterface}."
      },
      "symbol()": {
        "details": "See {IERC721Metadata-symbol}."
      },
      "tokenByIndex(uint256)": {
        "details": "See {IERC721Enumerable-tokenByIndex}."
      },
      "tokenOfOwnerByIndex(address,uint256)": {
        "details": "See {IERC721Enumerable-tokenOfOwnerByIndex}."
      },
      "tokenURI(uint256)": {
        "details": "See {IERC721Metadata-tokenURI}."
      },
      "totalSupply()": {
        "details": "See {IERC721Enumerable-totalSupply}."
      },
      "transferFrom(address,address,uint256)": {
        "details": "See {IERC721-transferFrom}."
      },
      "transferOwnership(address)": {
        "details": "Transfers ownership of the contract to a new account (`newOwner`). Can only be called by the current owner."
      }
    },
    "version": 1
  },
  "userdoc": {
    "kind": "user",
    "methods": {},
    "version": 1
  }
}