{
  "contractName": "Oracle",
  "abi": [
    {
      "inputs": [],
      "stateMutability": "nonpayable",
      "type": "constructor"
    },
    {
      "inputs": [],
      "name": "getLatestPrice",
      "outputs": [
        {
          "internalType": "int256",
          "name": "",
          "type": "int256"
        }
      ],
      "stateMutability": "view",
      "type": "function"
    }
  ],
  "bytecode": "0x608060405234801561001057600080fd5b50600080546001600160a01b031916739326bfa02add2366b30bacb125260af64103133117905561017c806100466000396000f3fe608060405234801561001057600080fd5b506004361061002b5760003560e01c80638e15f47314610030575b600080fd5b61003861004a565b60405190815260200160405180910390f35b60008060008060008060008054906101000a90046001600160a01b03166001600160a01b031663feaf968c6040518163ffffffff1660e01b815260040160a060405180830381865afa1580156100a4573d6000803e3d6000fd5b505050506040513d601f19601f820116820180604052508101906100c891906100f6565b50919998505050505050505050565b805169ffffffffffffffffffff811681146100f157600080fd5b919050565b600080600080600060a0868803121561010e57600080fd5b610117866100d7565b945060208601519350604086015192506060860151915061013a608087016100d7565b9050929550929590935056fea2646970667358221220359c940310da541694b22fc52334987c6d0881b6c29a8509c423f69af5353d5864736f6c634300080a0033",
  "immutableReferences": {},
  "source": "// SPDX-License-Identifier: MIT\r\npragma solidity ^0.8.10;\r\n\r\nimport \"@chainlink/contracts/src/v0.8/interfaces/AggregatorV3Interface.sol\";\r\n\r\ncontract Oracle {\r\n    \r\n    AggregatorV3Interface internal priceFeed;\r\n    \r\n    constructor() {\r\n        priceFeed = AggregatorV3Interface(0x9326BFA02ADD2366b30bacB125260Af641031331);\r\n    }\r\n    \r\n    function getLatestPrice() public view returns (int) {\r\n        (\r\n            uint80 roundID, \r\n            int price,\r\n            uint startedAt,\r\n            uint timeStamp,\r\n            uint80 answeredInRound\r\n        ) = priceFeed.latestRoundData();\r\n        return price;\r\n    }\r\n    \r\n}",
  "sourcePath": "C:\\Users\\kingcreek\\Desktop\\ProyectoCrypto\\project\\contracts\\Oracle.sol",
  "compiler": {
    "name": "solc",
    "version": "0.8.10+commit.fc410830.Emscripten.clang"
  },
  "schemaVersion": "3.4.4",
  "updatedAt": "2022-02-14T17:44:47.338Z",
  "devdoc": {
    "kind": "dev",
    "methods": {},
    "version": 1
  },
  "userdoc": {
    "kind": "user",
    "methods": {},
    "version": 1
  }
}